:100000006F10803100000000320100003401000058
:1000100000000000000000000000000000000000E0
:1000200000000000000000000000000000000000D0
:10003000CA080000000000001613000000000000C5
:10004000161300001613000016130000161300000C
:1000500016130000161300005208000016130000CB
:1000600016130000161300001613000016130000EC
:1000700016130000161300001613000016130000DC
:1000800004030000161300001613000016130000EE
:1000900016130000161300001613000000000000E5
:1000A000511126C022C206C4828282441244A24058
:1000B00031018280634E050263C305042E86AA8542
:1000C0007D5515C285466378B6006356C0000606A6
:1000D0008606E36CB6FE014563E4C500918D558D3F
:1000E00085820582F5FA82808682C93F2E858282CA
:1000F0003305A04063D70500B305B040C1B7B305D1
:10010000B0408682653F3305A0408282868263C705
:100110000500634905005D372E858282B305B04036
:10012000E35B05FE3305A040513F3305B0408282BA
:10013000000001A001A0EFF2BFF623860180A38E8C
:1001400001822147238F0182238EE182A3840180D3
:1001500011651301C1FD2388018285451305050240
:100160002384018002C402C602C802CA02CC02CEA5
:1001700002D002C002C2EF10701B371401408D473D
:10018000930400023EC62C00E1471305044064843A
:100190003EC8EF106056930700047C842C00914702
:1001A000130504403EC8EF102055F1673744014065
:1001B000938707204C083ECA13050480B7070C003C
:1001C0003ECE02CC23100102EF10101A8357C480D8
:1001D0000A851304048093E707025EA485475C81C7
:1001E00085473EC26480EF10F00385452285EF10FD
:1001F00070241301410255BD03C581801375F50FAD
:100200003335A0008280938781809C2393868180F0
:1002100093F7F70FEDDB93870183982313162700DD
:10022000138701813297184323A6E1809823137620
:10023000F70F130716001377F70F98A3370700205F
:10024000130787033297082398231D461375F50F6C
:100250006374E60023800700374701408357C78057
:10026000C207C18393F7F7FDC207C1832316F78046
:100270009C22FD1793F7F70F9CA28357C78093E743
:1002800007022316F78082809387C1839C2393867D
:10029000C18393F7F70FEDDB374701401307078062
:1002A0005E2793F7070889EF420541814AA3B747C4
:1002B000014003D7C780136707082396E780828031
:1002C0005E27C207C18393F7F7F7C207C1835EA712
:1002D0009387D18398231376F70F130716001377AC
:1002E000F70F98A313874183329708A398231D46DD
:1002F0006374E600238007009C22FD1793F7F70F35
:100300009CA275B7B74701401387078083D7078042
:1003100093F70702A9C393879180522398231376FA
:10032000F60F9376F70F138716001377F70F98A33E
:100330003707002013078703369710A398239D469D
:1003400063F4E60023800700138781801C23850760
:1003500093F7F70F1CA3B74701409385078083D716
:10036000078093F70708B1C39387C1839C231D457A
:100370001387C183636DF5029387E183942313F69A
:10038000F60F9306160093F6F60F94A39386418317
:10039000B2969422D6A194236374D50023800700DB
:1003A0001C23850793F7F70F1CA373002030DE256D
:1003B000C207C18393F7F7F7C207C183DEA5F5B77C
:1003C000EFF21FCE1301C1FD2AC22EC0454585455F
:1003D00002C402C602C802CA02CC02CE02D0EF108A
:1003E000E074854537052000EF1020769146F144F2
:1003F0000D442C0037150140748426C822C6EF1026
:10040000A02F89462C0037150140748426C822C6C7
:10041000EF10802E8247124737540040FC86930726
:1004200000403ACAFC873707FFBF91674C081305A5
:1004300004403ACC2310F102EF10004013050440B1
:100440008545EF10804D854513050440EF10A05100
:100450001301410299B9EFF2BFC431113EC0B7F7A1
:1004600000E084472A842EC432C636C23AC8B70593
:1004700002002285EF10005401C9B7F700E09C4745
:100480000247858FE3E5E7FEB7F700E09C470247A8
:10049000858F63E9E70022858545EF10204B0D45E8
:1004A000510121B185452285EF10A048370703008F
:1004B000050737550040BA8513050540EF10204E5B
:1004C00019E9B7F700E09C47824637070300858F9C
:1004D0000507E3E0D7FEB7F700E09C470247858FAA
:1004E000E3FBE7FAA24501462285EF10204A3707D1
:1004F000070013072708BA852285EF10404A01ED4F
:10050000B7F700E09C47824637070700858F13073F
:100510002708E3E2D7FEB7F700E09C470247858F44
:1005200063E8E70022858545EF10404205458DBF11
:10053000B2452285EF10C04437070700130747086C
:10054000BA852285EF10A04501EDB7F700E09C4782
:10055000824637070700858F13074708E3E2D7FE77
:10056000B7F700E09C470247858F63FAE70692479A
:100570004247BA973EC492472247639FE7008545AA
:100580002285EF10A03C37F700E01C478246858F9C
:10059000E3EDD7FE014529B7924722858C23EF1062
:1005A000203E9247370707001307470885073EC2DA
:1005B000BA852285EF10A03E01EDB7F700E09C4719
:1005C000824637070700858F13074708E3E2D7FE07
:1005D000B7F700E09C470247858FE3EEE7F82285F6
:1005E0008545EF10A036094565BDEFF27FAB3111AF
:1005F0003EC0B7F700E084472A842EC232C636C810
:100600003AC4B70502002285EF10C03A01C9B7F716
:1006100000E09C470247858FE3E5E7FEB7F700E07F
:100620009C470247858F63E9E70022858545EF10E7
:10063000E0310D45510195BC85452285EF10602FB5
:1006400037070300050737550040BA8513050540F5
:10065000EF10E03419E9B7F700E09C47824637070E
:100660000300858F0507E3E0D7FEB7F700E09C475E
:100670000247858FE3FBE7FA924501462285EF109A
:10068000E0303707070013072708BA852285EF10E7
:10069000003101EDB7F700E09C47824637070700BD
:1006A000858F13072708E3E2D7FEB7F700E09C47E2
:1006B0000247858F63E8E70022858545EF10002912
:1006C00005458DBFB2452285EF10802B3707070007
:1006D00013074708BA852285EF10602C01EDB7F7A4
:1006E00000E09C47824637070700858F13074708BD
:1006F000E3E2D7FEB7F700E09C470247858F63E847
:10070000E70022858545EF106024094525B7375558
:100710000040854513050540EF10A0213707030071
:10072000050737550040BA8513050540EF1020270F
:1007300019E9B7F700E09C47824637070300858F29
:100740000507E3E0D7FEB7F700E09C470247858F37
:10075000E3FDE7EC924505462285EF10202337079D
:1007600003000907BA852285EF10602319E9B7F75E
:1007700000E09C47824637070300858F0907E3E3C3
:10078000D7FEB7F700E09C470247858FE3F6E7F214
:1007900085452285EF10201D2247814779173AC2EF
:1007A000A246139707014183637BD70437070010E4
:1007B00013070704BA8522853EC6EF10A01FB24773
:1007C00001EDB7F600E09446024637070010858E2B
:1007D00013070704E3E0C6FE12476318F7008145DC
:1007E00022853EC6EF102018B24722853EC6EF1084
:1007F0006019B24742473E9708A3850755B7B7F738
:1008000000E09C47B38497408247E3EC97EE228553
:100810008545EF10A013014531BD93161500938750
:10082000C184B69792239A231182118F4207418384
:100830009AA313874185369712239A23329742074A
:1008400041839AA38A239387C1851181B6978AA38E
:100850008280B70702409C43898BB5C79387418A42
:100860009843611122C226C0050798C39C43858B1B
:10087000B1C7B7170140414798CB0145793F930471
:10088000F03F373401403385A440232EA4C20545F0
:1008900069373385A440232AA4C20945BD3F338567
:1008A000A440232CA4C20D458D3F1244B70702403B
:1008B0000947D8C38244210173002030B717014093
:1008C0004147D8CB5DBF73002030B7170140984730
:1008D0001386018414220D83134717002111F99AFE
:1008E000058B558F22CA26C818A2184289469387BD
:1008F00001840D8B6301D70263EBE6128546631911
:10090000D70098230D8B1367470098A3014719A8B8
:1009100098230D8BDDBF9843942309838D8A137729
:10092000F70394A39443858A139616009423F59AAB
:10093000D18E94A3938741849443850694C369C759
:1009400091471384418B63E7E7081C4005478507FF
:100950001CC01C406390E7081387C18A1423BDEABA
:10096000370530008545130505401CA33EC002C273
:1009700002C402C6EF00106085450545EF10001B5C
:10098000854513050002EF10601A0D477882B714F1
:10099000014041473AC6138504400D474C003AC414
:1009A000EF0090551840938404408247058B5DC347
:1009B0009CC81840B717014093870740098B49CF5F
:1009C000094798CB1C40918BD9CBB717014013072F
:1009D000000298CB1840B717014093870740058B5A
:1009E00049C7054798CB1840B71701409387074080
:1009F000098B3DCF094798CB1C40918BADCFB717E2
:100A000001401307000298CB9387418A94435244D4
:100A100023A4D18A23A0070005472384E184B7F7E4
:100A200000E023A20700C244610173002030944318
:100A30001306F0030147898293F6F603E384C6EEBA
:100A400098439423098305071377F7030A078D8AD0
:100A5000558F65BDDCC8B1BF0947D8CBA5B7B7175F
:100A6000014013070002D8CBB5B70547D8CBA5BFC7
:100A70000947D8CB51B7B717014013070002D8CBAD
:100A800061B7EFF2EFE1611101446346C4003285C2
:100A900021016FF08FE1B3878500882332C22EC019
:100AA000EFF08FFE050412468245C5B7EFF24FDF27
:100AB0001301C1FCB72500002A843946938585348B
:100AC0004800EF10E078B72500003946938585355A
:100AD0004808EF10E0770588540811C05400372506
:100AE00000001305453236C0EF10C06F37250600F1
:100AF0009305000A130505A8EFF09F8C370400202A
:100B0000832704019305803E139527003E95EFF05F
:100B1000EFDA8246AA8737550040394701469305E8
:100B2000000A13050540EFF01F9319E53725000073
:100B300013050533EF10006B032504019305803E78
:100B4000EFF0CFD7AA8737550040414754100146F0
:100B50009305000A13050540493C01E937250000CB
:100B60004C1013050534EF10E067130141036FF0DB
:100B7000CFD3EFF2EFD2130141FDEF00007309650F
:100B80001305F50DEF0030349387418BDA23956719
:100B90009387A75A1384418B6304F7002320040032
:100BA00095679387A75A5EA0EFF0EFD8B7070020AC
:100BB00083A507013725000013058536EF108062F5
:100BC000EF00007EAA853725000013058537EF105A
:100BD0006061370700208325078037250000130553
:100BE000853893040780EF10E05FDA208145B71461
:100BF000014005079377F70F3E853EC6EF00D029E9
:100C0000B2453725000013054539EF10A05D854535
:100C10001305000202D002D202D4EF0030718545E4
:100C20004145EF00B0700547C146138504402310CD
:100C3000E1020C100D4736D43AD2EF00F02B130628
:100C40000008138504402310C1020C101306800411
:100C500032D4EF00702AA145130680042310B1029C
:100C6000371501400C1032D4EF0010290D47130640
:100C70000003C1460C10371501403AD22310C102BF
:100C800036D4EF0070271840B70700209384044043
:100C9000058B63060740054798C814403717014085
:100CA00013070740898A638F063E894614CB184094
:100CB000118B630C073E371701409306000214CBDB
:100CC000856437E700E037F400E0232097105840B0
:100CD000A945799B58C003A50701EFF02FBE7D15EC
:100CE00008C8BD472324040015651CC013055555CD
:100CF000EF00704F0D45EF00904F138504FAEF00A1
:100D0000904FEF00D04FEF007050B7170240D8431C
:100D1000C1769386F67F758FD8C3984F45767D163A
:100D20001367072298CF3717014083260740F18EBB
:100D30002320D740832607407D761306F60FF18ED9
:100D40002320D74014433706F1FF7D16F18E14C3DC
:100D5000D847B726014013670720D8C7D84713776D
:100D6000F7DFD8C7B72701403707300023A6E7428F
:100D70003727040023A80742130747C623AAE742E0
:100D80003787E007130707E023A8E74003A787405A
:100D90001367170023A4E74003A787401367870062
:100DA00023A4E74003A78640218B6DFF03A786405D
:100DB000372601401367470023A4E64003278640F7
:100DC00093070640118B7DFB37170240544B1306E7
:100DD000C6443705400093E6160054CBB7060240E0
:100DE00090CA13864185D0CA1146D0C60D66130637
:100DF000265A90C637E600E02320A6109046B70595
:100E00000E00938525101366160090C6D04311641A
:100E1000B704000813660610D0C390474D8E90C7E4
:100E200094470566B70500B0C98E94C71C4F93065A
:100E3000168113060680D58F1CCFB7170140944347
:100E4000C19A94C3944393E6B60094C39443920624
:100E5000918294C39443CD8E94C39443B70500F11B
:100E6000FD15ED8E94C39443B705000BCD8E94C34E
:100E70005C47FD769386F67F5D8E50C75C471966AA
:100E8000930504FCF58FB73601405CC7938706C015
:100E9000239407021307F03FDAB7DA2B1367170022
:100EA000DAAB9A33136737009AB39A3313670703A1
:100EB0009AB39A33136707309AB39A2F13670706CA
:100EC0009AAF9A2F518F9AAFDA2F216613670706D0
:100ED000DAAF13070020D8DBB8C398DFD8DF03D719
:100EE0004704518F2392E704370701405C4393E79F
:100EF00007045CC383D706C093E717002390F6C0AE
:100F0000930704FCA697B72400001385843A3EC0DB
:100F1000EF10402D130704FC3744000826CA814710
:100F20003AC8130404FCB724000042471385443B2D
:100F30003EC23E970C23EF10E02A924741478507B7
:100F4000E395E7FEB72600001385C63BEF10A02B04
:100F50008245372700001305073CEF10A028B7266D
:100F600000003727000022C4A28736C23ACC8C2367
:100F70001385443B3ECEEF10E026F247374700088A
:100F8000130707FD8507E314F7FE92471385C73B58
:100F9000EF106027372500001305C53CEF108024B3
:100FA000024593050004952191476306F510372506
:100FB00000001305453DEF100025324501448144F2
:100FC000F53402C0EFF04FA36319051EB7170140B7
:100FD000938707409C4793F7070899C3EF00302297
:100FE000138781841C2393F7F70FE9DF23000700A1
:100FF0001387C1851A239387C18542074183B306AE
:10100000974063749700B386E4401307F00F63675B
:10101000D7040D476364D704BA2342074183B3065C
:10102000874063748700B306E4401307F00F6367DB
:10103000D7020D476364D702DA238246024642078D
:101040004183B306D7406374C700B306E640130775
:10105000F00F6365D7000D47E376D7F68E23B223F2
:101060003725000013054542EF10C0179387C1854F
:10107000CE23F22383A6818A37250000130505437A
:10108000EF1040169387C1858623A223DE23C20476
:101090004204C207C183C18041803EC025B70547D5
:1010A000D8C8E5BE894654CB19B13717014093061D
:1010B000000254CB31B1E24782451385073CEF1063
:1010C00060120C201385443B0504EF10A011B747B4
:1010D0000008938707FDE39687FE92470144138536
:1010E000C73BEF1040129167938507FCD2471385E9
:1010F000873AEF10200FC2471385443BA2978C23F9
:101100000504EF10200EC147E317F4FE9247138544
:10111000C73BEF10400F8147138541869305F003CD
:1011200013070004B306F5003386F54090A2850747
:10113000E39AE7FE372500001305C541EF10800A4A
:1011400002451306000493854186C5269147E310A6
:10115000F5E69167938507FCD24701441385873AEA
:10116000EF104008C2471385443BA2978C23050427
:10117000EF104007C147E317F4FE92471385C73BC2
:10118000EF1060088245372500001305053CEF107D
:101190006005A2471385443B8C23EF10A004A247AF
:1011A00085073EC42247B7470008938707FDE392AF
:1011B000E7FE92471385C73BFDBBEFF0CF84EFF00E
:1011C000AF8C09B5EFE2DFED371402401C40370762
:1011D000FFF8414593E717001CC05C40F98F5CC0E5
:1011E0001C403707F7FE7D17F98F1CC01C403707DE
:1011F000FCFF7D17F98F1CC05C4041777D17F98F8C
:101200005CC0B7079F001CC4EF0010071C4C93E79D
:1012100007021CCCB717014003A70740938607407D
:101220001377F7F023A0E74003A7074013670708E9
:1012300023A0E74089479CCAB7F7FF1F03C5477D36
:101240009307F00F6305F5007D89EF00F002B727E3
:1012500002409843C176FD16719B98C3984313676B
:10126000170098C3B7170240D843D8C3D843758F27
:10127000D8C3D843B7060001D8C39843558F98C345
:10128000984393166700E3DD06FED843B716024085
:10129000719BD8C3D84313672700D8C32147DC42CA
:1012A000B18BE39EE7FE6FE05FE0EFE27FDF371791
:1012B00002405C43370400209146B18B13040401C3
:1012C0006385D700A1466382D704B7376E01938741
:1012D00007601CC0B7160240DC420840918313F738
:1012E000F700B707002093870700BA978C23DC42EA
:1012F00093F5F50F93F707083357B50081E7EFE053
:10130000FFDB2A8718C06FE05FDA5C43B777DC0247
:10131000938707C07DBF01A097F1FF1F9381015202
:10132000138181FC171500001305451297F5FF1F67
:10133000938545CD17F6FF1F130646D063FAC50007
:101340008322050023A0550011059105E3EAC5FE9F
:1013500017F5FF1F130585CE9385418B6377B50085
:10136000232005001105E36DB5FEB722000093822E
:101370000288739002308D427390428097F2FFFF93
:10138000938242C893E2320073905230EFF09FE3B1
:1013900097F2FFFF9382227E739012347300203005
:1013A000B7F7FF1F03A5477C828001771303004036
:1013B00093020004B7270240B70302007D176318A9
:1013C0006602944B93E6260094CBC8CB944B93E6ED
:1013D000060494CBD447858AF5FE63106602944BCD
:1013E00013050540F59A94CBFD15F1F98280E31EB3
:1013F00056FC944BB3E67600C1BFE31756FE944B00
:1014000013050504F98E94CBC5B7B70700F8AA9762
:10141000116763F8E710EFE2BFC83307B500B746BE
:1014200000085111AA849307D00F63EEE6063367D4
:10143000B5001377F7039307E00F35E7ADC5B7069F
:101440006745B7270240938636123797EFCDD4C34E
:101450001307B79AD8C3D4D3D8D39307F03F63F513
:10146000B7021376F53F930600403387C640938555
:1014700005C03303E5003384C500630AD70263E483
:101480008704A2879A86BDA09307F00363E7B70895
:10149000B7270240984BA166558F98CB984B13679E
:1014A000070898CB91473E8531016FE01FC01306B6
:1014B000004085451AC0D53D02439307F03F9A8608
:1014C00063F587040147330683009377F63F9A86D6
:1014D00099C3937606C0B305F44013060040A98172
:1014E0001A853AC436C23EC0C93582472247924661
:1014F0003E8401CF1306000493556700268536C24B
:101500003EC06535824792463E8459D0130600049A
:10151000935564003685513DA5BF2E87814781468E
:10152000D1BF9307F00F3E858280B70700F8AA97D6
:10153000116763F3E70E3307C500B746000893074A
:10154000D00F63EDE60C3367C5001377F7039307FD
:10155000E00F69E761C64111B7066745B72702404A
:1015600022C626C4938636123797EFCDD4C313070D
:10157000B79AD8C3D4D3D8D34177B387A5407D17C2
:101580003EC01982B7270240C16537030800B70281
:1015900004003AC202473304A700984B4D8F98CB02
:1015A000984B3367670098CBD847058B75FF93033B
:1015B0000004B304E4008440B306E50084C2944B05
:1015C000B3E6560094CBD447858AF5FE1107E312A3
:1015D00077FE984B930605044D8F98CBC8CB984B5C
:1015E0001367070498CBD847058B75FF984B1245B6
:1015F0007D16698F98CB19EE984BA1663244558FB2
:1016000098CB984BA2441367070898CB91473E8527
:10161000410182803685BDBF9307F00F3E858280F1
:10162000B7066745B7270240938636123797EFCD46
:10163000D4C31307B79AD8C394C798C7984B1367F6
:10164000070298CB984B1367070498CBD847058BB4
:1016500075FF984BB70600201377F7FD98CB984B92
:101660001367070198CB938706801D8D37270240AB
:101670009386C6803306F500122292A35047058A4E
:1016800075FE8907E398D7FE1C4BBD9B1CCB1C4BFA
:1016900093E707081CCB8280EFE29FA0B7070020EA
:1016A00003A70780C20551112E953AC02AC203A78D
:1016B00087803AC483A747806304F5000A858D3785
:1016C00031016FE09F9EEFE2BF9DB707002083A628
:1016D0000780511136C083A6478036C203A7878092
:1016E00068813AC483A7078002476304F7000A852C
:1016F000053F31016FE07F9B944593F7060193F21C
:10170000F60081C7DC41B3E2F20083D3050093F712
:10171000F30FA5C303230500611122C226C0814730
:10172000130480029304800405473316F70033F74F
:10173000C3006312E602939527003D473317B700B5
:101740001347F7FF33736700B395B20033E36500C7
:10175000639D860050C985072147E397E7FC124443
:1017600023206500824421018280E39696FE10C901
:10177000DDB782803703014003274300931735000C
:1017800063D00702B707C0FFF517F98F37070007C7
:10179000D98FD9CD370700F07D17798DC98F49A82A
:1017A000635D0500B707E0FFED17F98F3707000706
:1017B000D98FBDCD06050581D5B7B7073000931683
:1017C00005013376F500C1826313F602370600F98E
:1017D0007D16B377C70003274300798E2322C30009
:1017E000A1C95581131745003395E60045BF9317EE
:1017F000B50063D407029357050113F6F7008D4730
:10180000B397C70093C7F7FFF98F37070007D98F42
:1018100085C1135755011207C1BF55811205339574
:10182000A6009347F5FFF98F37070007D98FBDF55D
:10183000370701405CC38280EFE29F861111462189
:101840002A8428002EC09124C246C204C18093F489
:1018500004FCB7450F00938505243685C20436C2C3
:10186000C180EFE0BF85458D420541814AA01E2021
:101870009246C207C183F99BC207C1831EA082475B
:101880009043E1679387076A9315160063E6C704E0
:101890003685EFE0BF82AA87420541819146637396
:1018A000D50091471395070141814AAC1E2002479C
:1018B00093E717001EA01E2056233227C207C183BC
:1018C000D18E93F757BFD58F1EA016275E27D58FD1
:1018D0001EA471016FE06FFD8247EA23B167FD1717
:1018E0006310F502B2953685EFE04FFD4205418168
:1018F0009317450199E313651500A1675D8D75B7D1
:10190000B387C5008E07B385C7003685EFE00FFBB0
:101910004205418191675D8DE1BF1E2189C593E735
:1019200017001EA18280C207C183F99BC207C18331
:10193000CDBF1E2189C593E707101EA18280C20773
:10194000C18393F7F7EFC207C183C5BF1E2189C5C5
:1019500093E707201EA18280C207C18393F7F7DFB8
:10196000C207C183C5BF1E2189C593E707401EA1D9
:101970008280C207C18393F7F7BFC207C183C5BF87
:101980000EA982800A291375F50F828093F7E50F5F
:1019900019C293E71500C207C1831EA982805E2980
:1019A0000A2D42055D8D6D8D220521810D8D13352A
:1019B00015008280611102C002C293D7C5012AC2FC
:1019C0003EC08247A205A18199CB9247D1073EC272
:1019D0009247884321016D8D3335A0008280924764
:1019E000C181E107EDB7B737004088C38280B737C0
:1019F0000040C8C38280B737004088C78280AD6787
:101A0000373700409387A7AA1CC38280B567373752
:101A100000409387C7CC1CC3371702405C53898BA7
:101A2000F5DF828083A6018B854718216390F6023B
:101A30001C31639CD7023C219A0793E707F8B7E66D
:101A400000E093F7F70FBA962380F6408546935748
:101A500057003397E600544189CE938707048A07DD
:101A6000B7E600E0B69798C38280EDF33C219A0771
:101A7000F9B793870706E5B7371702401C430E05F1
:101A800093F777F05D8D08C38280EFE26FE137173F
:101A900002405C4391462A84B18B6385D700A146FE
:101AA0006380D708B7376E01938707601CC0B716ED
:101AB0000240DC42918313F7F700B70700209387B9
:101AC0008702BA978C23DC42184093F5F50F93F701
:101AD00007083355B70081E73A85EFE02FDE48C0AD
:101AE00008C448C4B7170240DC438D46AD83FD8B64
:101AF00013D737008A07F18BD98F13F6370113F705
:101B0000370063F4C600138747FFB70700209387A9
:101B10004701BA978C23EFE06FDA08C86FE0EFD87F
:101B20005C43B777DC02938707C049B799C537177D
:101B300002401C4F5D8D08CF8280B7170240984F3E
:101B40001345F5FF798D88CF828099C537170240FC
:101B50005C4F5D8D48CF8280B7170240D84F134548
:101B6000F5FF798DC8CF8280EFE28FD31629F57704
:101B7000FD17F58FF621DA252111D58F1EA95625DF
:101B8000FD779387379FF58FD6212A842EC0D58F76
:101B90009625D58FB625D58F5EA55E29C207C18350
:101BA00093F7F7CF5D8F5AA94800C535B747014075
:101BB0009387078082456312F406C2475A2413951F
:101BC00017003E9542070E0541873E958C416358AC
:101BD00007048605EFE08FCE930540062AC0EFE0AC
:101BE000EFCD824793144500930540063E85EFE014
:101BF000AFCF5E24C207C18763D507020E059305E8
:101C0000400613052503EFE06FCB1D89C98CC20484
:101C1000C18006A461016FE04FC9B24745B78A058C
:101C200055BF12059305400613052503EFE00FC9C4
:101C30003D89E9BF91C55E250967D98F5EA5828080
:101C40005A25F977FD17F98FD5BF411106C62EC069
:101C50000DCD1841AA8705C358417D5511CB854646
:101C6000631BD70098472300070023A20700054500
:101C7000B240410182809847824614A398470507E5
:101C800098C7D8437D17D8C3DDB705468A85EFE0EE
:101C90005FDFF1BF011122CC2EC206CE26CA2A84F4
:101CA000814793050002634506029245BE958385F0
:101CB00005008DE563D8C70263D4E702198E1305CA
:101CC000000293F526002AC089C501E793050003A9
:101CD0002EC0858A814495EAB2840DA08507F1B7AC
:101CE0001D8EF1BF0146E1BF824522853AC832C64A
:101CF0003EC4A13FA24732464247FD14E34690FE50
:101D0000B284635306008144058E63C7E702A68749
:101D100092463387974036978305070095EDB28446
:101D200063449004635306000146F2406244D24487
:101D30003305F600056182801D8FBA879305000385
:101D4000228532C83EC63AC40937B24722474246C6
:101D5000FD17EDF7BA9465BF228532C63EC4F5354E
:101D6000A247324685076DB78245228532C43EC2FE
:101D7000E93DFD142246924765B7397106DE22DC43
:101D800026DA3EC232833A8689ED924693070003F3
:101D900001476C08FC86FD3DF2506254D25421612B
:101DA0008280AA843684AE8791CA2947014463178A
:101DB000E30063D50500B307B04005448646A30998
:101DC000010213073103938666FC36C49A853E856B
:101DD00032CA3AC81AC63EC0EFE00FB1A5468247E4
:101DE00032434247524663D4A600A24636951305B5
:101DF00005039306F7FFA30FA7FE9A853E8532CC15
:101E00003ACA1AC83EC636C0EFE04FABB2474243AB
:101E10005247624663F9670401CC29CA9247898B0D
:101E2000B1C79305D002268532C4053522467D16FA
:101E30009247918B95C306479307100632C49305CA
:101E400000032685631EF702093593058007268562
:101E5000ED3B2246090479161647924682452685AF
:101E6000153D229515BFAA8702478DB78246930775
:101E7000D0020144A38FF6FE9307E7FF3EC04DBF9B
:101E8000E93393058005E1B70145828001458280F1
:101E9000130181FD22D026CE06D22AC4AE8232841E
:101EA00002C681448385020089EDA24781C781452E
:101EB0003E85613B925002542685F2441301810213
:101EC0008280930750026388F500224516C8850476
:101ED000AD3BC24239A88387120013871200639C6E
:101EE000B7002245930550023AC88533424785041E
:101EF000BA82850245BFD5DB9306B0026389D70459
:101F000063C8F600930630026386D704814705A0B4
:101F10009306D002638AD70093060003E398D7FEA6
:101F200013872200894721A0138722008547830653
:101F300007001306B0026383C6046341D60213068A
:101F40003002638BC602BA820145A54681A0138781
:101F500022006DBF138722009147D1BF1306D00224
:101F60006389C60013060003E39FC6FC93E72700BE
:101F700031A005078547C1BF93E747000507E1B7D3
:101F800013162500329506053A9585020386020050
:101F9000130706FD9375F70FE3F4B6FE1307E0028F
:101FA0009946631EE60085028146A5450386020028
:101FB000130606FD1377F60F63F5E50236C60387B1
:101FC00002001306A006630DC70A6343E602130668
:101FD000C0046307C70A13068006630CC70881455F
:101FE0002DA813972600BA968606B29685027DBF65
:101FF000130640076306C7081306A0076302C70855
:102000001306C0068145631AC700038612008D457A
:102010006314E6008502914585020386020093035E
:1020200000061307100663C4C300130710049303CC
:10203000700663C4C3069303500663547618930373
:10204000700463C1C30493055004635CB6161307A0
:102050003004E310E6EA18409303440016CA230C48
:10206000E1001EC8A30C01000147BE862A862C0889
:1020700049A8038612008145E311E6FA890271BF7F
:102080008502B1BF93063006E307D6FC63CFC606D0
:10209000930680056303D602A9BD93063007630447
:1020A000D60463CBC6029306F0066303D60E9306EE
:1020B000000793E74700E31ED6E291466390D50CF4
:1020C000930384000C40504016CA3AC23EC01EC85A
:1020D000AA870147C14681A8930650076309D6061F
:1020E0009306800745BF1840B726000093034400BD
:1020F0009385064411C3BA85324716CA1EC8BE86E8
:102100002A862245EFF01FB90DA091466394D502AF
:10211000930384000C40504016CA3AC23EC01EC809
:10212000AA870547A94622458533C243AA941E843F
:10213000D242C1B3B2460C4016C836C23AC01104EE
:102140002A878546294622450D39AA9459B39146D6
:10215000639DD500930384000C40504016CA3AC2D8
:102160003EC01EC8AA87014775BFB2460C4016C8BC
:1021700036C23AC011042A878146E9B7B24616C86A
:102180000C40414636C23AC011042A87814665BFD9
:102190009146639ED500930384000C40504016CABC
:1021A0003AC23EC01EC8AA870147A146ADBFB2468B
:1021B0000C4016C836C23AC011042A87814621460F
:1021C00059B70C401306840040403AC22A87224582
:1021D00032C83EC02286B687A94616CA4539AA9497
:1021E0004244B9B71301C1FD2EC832CAAA851008EE
:1021F000014506C636CC3ACE3ED032C05139B24047
:10220000130141028280411122C426C206C61C214C
:10221000AA840144DC8183073100050499EFA947B2
:102220009305310005460145DC81EFE09F8522855D
:10223000B240224492444101828005469305310018
:102240000145EFE01F84B38784009C23DC81E1B764
:10225000B3C7A5008D8B3307C50081E78D4763E7C2
:10226000C702AA87637EE50A942185078505A38FA7
:10227000D7FEE3EBE7FE8280942185078505A38FD7
:10228000D7FEE3EBE7FE024411018280937635002E
:10229000AA8789CA942185078505A38FD7FE93F65F
:1022A0003700C5BF9376C7FF138606FE63F5C706E2
:1022B000711122C0C04903A3050083A38500C0CBD0
:1022C000804D23A0670003A3450080CFC04D23A20B
:1022D000670083A2C50003A3050193854502C0CF13
:1022E00003A4C5FF23A4770023A6570023A86700F3
:1022F0009387470223AE87FEE3EEC7FAE3F3D7F8EE
:1023000090419107910523AEC7FECDBF9041910743
:10231000910523AEC7FEE3EBD7FEE3E7E7F4828047
:1023200082800000496E6974204932430A0D000022
:10233000493243205772697465204F4B0A0D0000E3
:1023400025730D0A0000000048656C6C6F2C205747
:102350006F726C64210000002A2A2A2A2A2A2A2A5B
:102360002A2A2A2A2A00000053797374656D436C67
:102370006B3A25640D0A00004368697049443A25A8
:102380003038780D0A000000557365723A253038F0
:10239000780A0D00426F6F7420636F756E74206948
:1023A000732025640D0A00004045453A25303878F1
:1023B0000D0A000025303278200000000D000000DA
:1023C000405045453A253038780D0A004572617312
:1023D000650A0D00636865636B20464C4153485F96
:1023E0004144525F52414E47455F4552524F522041
:1023F000464C4153485F414C49474E5F4552524F0E
:1024000052206F7220464C4153485F4F505F5241FB
:102410004E47455F4552524F520D00005772697446
:10242000650A0D0025346420253464200000000076
:1024300025346420253464202025640D0A00000022
:08244000286E756C6C29000088
:10244800010203040506070801020304050607083C
:10245800006CDC020204060804080C10081018209E
:102468001020304020406080010203040506070860
:08247800010203040506070838
:08248000000000000000000054
:103FC000000102030405060708090A0B0C0D0D0F7A
:103FD00000000000000000000000000000000000E1
:103FE00000000000000000000000000000000000D1
:103FF00000000000000000000000000000000000C1
:00000001FF
