:100000006F10402B0000000032010000340100009E
:1000100000000000000000000000000000000000E0
:1000200000000000000000000000000000000000D0
:10003000D208000000000000B21200000000000022
:10004000B2120000B2120000B2120000B2120000A0
:10005000B2120000B21200005A080000B2120000F2
:10006000B2120000B2120000B2120000B212000080
:10007000B2120000B2120000B2120000B212000070
:1000800004030000B2120000B2120000B21200001D
:10009000B2120000B2120000B21200000000000014
:1000A000511126C022C206C4828282441244A24058
:1000B00031018280634E050263C305042E86AA8542
:1000C0007D5515C285466378B6006356C0000606A6
:1000D0008606E36CB6FE014563E4C500918D558D3F
:1000E00085820582F5FA82808682C93F2E858282CA
:1000F0003305A04063D70500B305B040C1B7B305D1
:10010000B0408682653F3305A0408282868263C705
:100110000500634905005D372E858282B305B04036
:10012000E35B05FE3305A040513F3305B0408282BA
:10013000000001A001A0EFF2BFF623860180A38E8C
:1001400001822147238F0182238EE182A3840180D3
:1001500011651301C1FD2388018285451305050240
:100160002384018002C402C602C802CA02CC02CEA5
:1001700002D002C002C2EF10F008371401408D47D0
:10018000930400023EC62C00E1471305044064843A
:100190003EC8EF102050930700047C842C00914748
:1001A000130504403EC8EF10E04EF16737440140AC
:1001B000938707204C083ECA13050480B7070C003C
:1001C0003ECE02CC23100102EF1090078357C4806B
:1001D0000A851304048093E707025EA485475C81C7
:1001E00085473EC26480EF10607185452285EF101F
:1001F000F0111301410255BD03C581801375F50F40
:100200003335A0008280938781809C2393868180F0
:1002100093F7F70FEDDB93870183982313162700DD
:10022000138701813297184323A6E1809823137620
:10023000F70F130716001377F70F98A3370700205F
:10024000130787033297082398231D461375F50F6C
:100250006374E60023800700374701408357C78057
:10026000C207C18393F7F7FDC207C1832316F78046
:100270009C22FD1793F7F70F9CA28357C78093E743
:1002800007022316F78082809387C1839C2393867D
:10029000C18393F7F70FEDDB374701401307078062
:1002A0005E2793F7070889EF420541814AA3B747C4
:1002B000014003D7C780136707082396E780828031
:1002C0005E27C207C18393F7F7F7C207C1835EA712
:1002D0009387D18398231376F70F130716001377AC
:1002E000F70F98A313874183329708A398231D46DD
:1002F0006374E600238007009C22FD1793F7F70F35
:100300009CA275B7B74701401387078083D7078042
:1003100093F70702A9C393879180522398231376FA
:10032000F60F9376F70F138716001377F70F98A33E
:100330003707002013078703369710A398239D469D
:1003400063F4E60023800700138781801C23850760
:1003500093F7F70F1CA3B74701409385078083D716
:10036000078093F70708B1C39387C1839C231D457A
:100370001387C183636DF5029387E183942313F69A
:10038000F60F9306160093F6F60F94A39386418317
:10039000B2969422D6A194236374D50023800700DB
:1003A0001C23850793F7F70F1CA373002030DE256D
:1003B000C207C18393F7F7F7C207C183DEA5F5B77C
:1003C000EFF21FCE1301C1FD2AC22EC0454585455F
:1003D00002C402C602C802CA02CC02CE02D0EF108A
:1003E0006062854537052000EF10A0639146F14417
:1003F0000D442C0037150140748426C822C6EF1026
:10040000602989462C0037150140748426C822C60D
:10041000EF1040288247124737540040FC8693076C
:1004200000403ACAFC873707FFBF91674C081305A5
:1004300004403ACC2310F102EF10802D1305044044
:100440008545EF10003B854513050440EF10203F24
:100450001301410299B9EFF2BFC431113EC0B7F7A1
:1004600000E084472A842EC432C636C23AC8B70593
:1004700002002285EF10804101C9B7F700E09C47D8
:100480000247858FE3E5E7FEB7F700E09C470247A8
:10049000858F63E9E70022858545EF10A0380D457B
:1004A000510121B185452285EF1020363707030021
:1004B000050737550040BA8513050540EF10A03BEE
:1004C00019E9B7F700E09C47824637070300858F9C
:1004D0000507E3E0D7FEB7F700E09C470247858FAA
:1004E000E3FBE7FAA24501462285EF10A037370764
:1004F000070013072708BA852285EF10C03701EDE2
:10050000B7F700E09C47824637070700858F13073F
:100510002708E3E2D7FEB7F700E09C470247858F44
:1005200063E8E70022858545EF10C02F05458DBFA4
:10053000B2452285EF1040323707070013074708FE
:10054000BA852285EF10203301EDB7F700E09C4714
:10055000824637070700858F13074708E3E2D7FE77
:10056000B7F700E09C470247858F63FAE70692479A
:100570004247BA973EC492472247639FE7008545AA
:100580002285EF10202A37F700E01C478246858F2E
:10059000E3EDD7FE014529B7924722858C23EF1062
:1005A000A02B9247370707001307470885073EC26D
:1005B000BA852285EF10202C01EDB7F700E09C47AB
:1005C000824637070700858F13074708E3E2D7FE07
:1005D000B7F700E09C470247858FE3EEE7F82285F6
:1005E0008545EF102024094565BDEFF27FAB311141
:1005F0003EC0B7F700E084472A842EC232C636C810
:100600003AC4B70502002285EF10402801C9B7F7A8
:1006100000E09C470247858FE3E5E7FEB7F700E07F
:100620009C470247858F63E9E70022858545EF10E7
:10063000601F0D45510195BC85452285EF10E01CDA
:1006400037070300050737550040BA8513050540F5
:10065000EF10602219E9B7F700E09C4782463707A0
:100660000300858F0507E3E0D7FEB7F700E09C475E
:100670000247858FE3FBE7FA924501462285EF109A
:10068000601E3707070013072708BA852285EF1079
:10069000801E01EDB7F700E09C4782463707070050
:1006A000858F13072708E3E2D7FEB7F700E09C47E2
:1006B0000247858F63E8E70022858545EF108016A5
:1006C00005458DBFB2452285EF1000193707070099
:1006D00013074708BA852285EF10E01901EDB7F737
:1006E00000E09C47824637070700858F13074708BD
:1006F000E3E2D7FEB7F700E09C470247858F63E847
:10070000E70022858545EF10E011094525B78545AD
:100710002285EF102011375500408545130505400F
:10072000EF10A00E37070300050737550040BA85C4
:1007300013050540EF10201419E9B7F700E09C47B6
:10074000824637070300858F0507E3E0D7FEB7F73A
:1007500000E09C470247858FE3F9E7EC92450546A8
:100760002285EF102010370703000907BA8522857C
:10077000EF10601019E9B7F700E09C478246370791
:100780000300858F0907E3E3D7FEB7F700E09C4736
:100790000247858FE3F2E7F285452285EF10200AB4
:1007A0002247814779173AC2A2461397070141832E
:1007B000637BD7043707001013070704BA85228527
:1007C0003EC6EF10A00CB24701EDB7F600E094462C
:1007D000024637070010858E13070704E3E0C6FEC4
:1007E00012476318F700814522853EC6EF102005A9
:1007F000B24722853EC6EF106006B24742473E9799
:1008000008A3850755B7B7F700E09C47B384974026
:100810008247E3E897EE22858545EF10A000014569
:1008200011BD931615009387C184B69792239A231E
:100830001182118F420741839AA31387418536970E
:1008400012239A233297420741839AA38A239387DC
:10085000C1851181B6978AA38280B70702409C4365
:10086000898BB5C79387418A9843611122C226C0FC
:10087000050798C39C43858BB1C7B7170140414713
:1008800098CB0145793F9304F03F373401403385DD
:10089000A440232EA4C2054569373385A440232AEA
:1008A000A4C20945BD3F3385A440232CA4C20D45F5
:1008B0008D3F1244B70702400947D8C38244210143
:1008C00073002030B71701404147D8CB5DBF73009C
:1008D0002030B717014098471386018414220D83F6
:1008E00013471700F99A058B558F18A218428946AD
:1008F000938701840D8B6301D70263E6E60A854680
:100900006319D70098230D8B1367470098A30147FD
:1009100019A898230D8BDDBF9843942309838D8AF2
:100920001377F70394A39443858A139616009423B0
:10093000F59AD18E94A3938741849443850694C3FA
:1009400039C391469387018B63E5E6009843050719
:1009500098C394433717014013070740858ABDC6E3
:10096000854614CB94433717014013070740898A03
:10097000ADC2894614CB9C43918BB9CFB7170140C8
:100980001307000298CB9387418A944323A4D18A0A
:1009900023A0070005472384E184B7F700E023A2E2
:1009A00007007300203094431306F0030147898247
:1009B00093F6F603E389C6F6984394230983050763
:1009C0001377F7030A078D8A558F89B7854654CB6D
:1009D00051BF894654CB45B7B717014013070002F2
:1009E000D8CB55B7EFF2CFEB611101446346C40099
:1009F000328521016FF06FEBB3878500882332C207
:100A00002EC0EFF07F88050412468245C5B7EFF28D
:100A10002FE91301C1FCB72500002A8439469385CC
:100A2000C5214800EF102070B72500003946938596
:100A3000C5224808EF10206F0588540811C05400E3
:100A4000372500001305851F36C0EF1000673725D6
:100A500006009305000A130505A8EFF07F9682466D
:100A6000B7B70300375500409387079839470146C9
:100A70009305000A13050540F93A19E537250000EA
:100A800013054520EF106063B16737550040938729
:100A900007B84147541001469305000A1305054065
:100AA000A93601E9372500004C1013054521EF1048
:100AB000C060130141036FF04FDFEFF26FDE1301EF
:100AC00041FDEF00407809651305F50DEF00703921
:100AD0009387018BDA2395679387A75A1384018B39
:100AE0006304F7002320040095679387A75A5EA04C
:100AF000EFF06FE4B707002083A50701372500005A
:100B00001305C523EF10605BEF005003AA8537255E
:100B100000001305C524EF10405A37070020832535
:100B20000780372500001305C52593040780EF10C3
:100B3000C058DA208145B714014005079377F70FB5
:100B40003E853EC6EF00102FB24537250000130545
:100B50008526EF10805685451305000202D002D28B
:100B600002D4EF00306A85454145EF00B069054782
:100B7000C146138504402310E1020C100D4736D402
:100B80003AD2EF00303113060008138504402310D9
:100B9000C1020C101306800432D4EF00B02FA1451F
:100BA000130680042310B102371501400C1032D413
:100BB000EF00502E0D4713060003C1460C103715E9
:100BC00001403AD22310C10236D4EF00B02C1840B5
:100BD000B707002093840440058B6308074005474E
:100BE00098C814403717014013070740898A63816A
:100BF0000640894614CB1840118B630E073E371709
:100C000001409306000214CB856437E700E037F417
:100C100000E0232097105840A945799B58C003A5B0
:100C20000701EFF0AFC97D1508C8BD4723240400B4
:100C300015651CC013055555EF0070480D45EF00B4
:100C40009048138504FAEF009048EF00D048EF0079
:100C50007049B7170240D843C1769386F67F758FE7
:100C6000D8C3984F45767D161367072298CF37175C
:100C7000014083260740F18E2320D740832607407A
:100C80007D761306F60FF18E2320D740832607408A
:100C90003706F1FF7D16F18E2320D740D847B726BF
:100CA000014013670720D8C7D8471377F7DFD8C7A5
:100CB000B72701403707300023A6E7423727040053
:100CC00023A80742130747C623AAE7423787E0074E
:100CD000130707E023A8E74003A78740136717001F
:100CE00023A4E74003A787401367870023A4E740B6
:100CF00003A78640218B6DFF03A78640372601405E
:100D00001367470023A4E640032786409307064065
:100D1000118B7DFB37170240544B1306C644370531
:100D2000400093E6160054CBB706024090CA1386E3
:100D30004185D0CA1146D0C60D661306265A90C604
:100D400037E600E02320A6109046B7050E009385F5
:100D500025101366160090C6D0431164B70400082E
:100D600013660610D0C390474D8E90C79447056612
:100D7000B70500B0C98E94C71C4F930616811306A1
:100D80000680D58F1CCFB71701409443C19A94C3F6
:100D9000944393E6B60094C394439206918294C31D
:100DA0009443CD8E94C39443B70500F1FD15ED8EA9
:100DB00094C39443B705000BCD8E94C35C47FD7676
:100DC0009386F67F5D8E50C75C471966930504FCD9
:100DD000F58FB73601405CC7938706C0239407029E
:100DE0001307F03FDAB7DA2B13671700DAAB9A3341
:100DF000136737009AB39A33136707039AB39A338A
:100E0000136707309AB39A2F136707069AAF9A2F82
:100E1000518F9AAFDA2F216613670706DAAF1307EF
:100E20000020D8DBB8C398DFD8DF03D74704518F41
:100E30002392E704370701405C4393E707045CC350
:100E400083D706C093E717002390F6C0930704FCEE
:100E5000A697B72400001385C4273EC0EF10E025F5
:100E6000130704FC3744000826CA81473AC8130414
:100E700004FCB72400004247138584283EC23E97F5
:100E80000C23EF108023924741478507E395E7FE47
:100E9000B726000013850629EF1040248245372726
:100EA000000013054729EF104021B726000037271F
:100EB000000022C4A28736C23ACC8C231385842832
:100EC0003ECEEF10801FF24737470008130707FD9B
:100ED0008507E314F7FE924713850729EF100020DA
:100EE000372500001305052AEF10201D0245930544
:100EF0000004552991476306F510372500001305B6
:100F0000852AEF10A01D324501448144093602C0F4
:100F1000EFF08FAE6319051EB717014093870740A6
:100F20009C4793F7070899C3EF00F01A1387818451
:100F30001C2393F7F70FE9DF230007001387C18510
:100F40001A239387C18542074183B3069740637490
:100F50009700B386E4401307F00F6367D7040D478B
:100F60006364D704BA2342074183B306874063749E
:100F70008700B306E4401307F00F6367D7020D47FD
:100F80006364D702DA238246024642074183B306EE
:100F9000D7406374C700B306E6401307F00F6365DC
:100FA000D7000D47E376D7F68E23B223372500000E
:100FB0001305852FEF1060109387C185CE23F22390
:100FC00083A6818A3725000013054530EF10E00E17
:100FD0009387C1858623A223DE23C2044204C2076D
:100FE000C183C18041803EC025B70547D8C8D5BE62
:100FF000894654CB09B1371701409306000254CB00
:1010000021B1E247824513854729EF10000B0C20E0
:10101000138584280504EF10400AB747000893871A
:1010200007FDE39687FE9247014413850729EF10D9
:10103000E00A9167938507FCD2471385C727EF1015
:10104000C007C24713858428A2978C230504EF109C
:10105000C006C147E317F4FE924713850729EF1036
:10106000E0078147138541869305F00313070004C9
:10107000B306F5003386F54090A28507E39AE7FEB4
:10108000372500001305052FEF1020030245130636
:1010900000049385418605299147E310F5E69167A1
:1010A000938507FCD24701441385C727EF10E00062
:1010B000C24713858428A2978C230504EF00F07F94
:1010C000C147E317F4FE924713850729EF1000018B
:1010D00082453725000013054529EF00107EA24701
:1010E000138584288C23EF00507DA24785073EC4DA
:1010F0002247B7470008938707FDE392E7FE924730
:1011000013850729FDBBEFF00F90EFF0EF9709B5BE
:10111000EFE21FF9371402401C403707FFF8611156
:1011200093E717001CC05C404145F98F5CC01C4030
:101130003707F7FE7D17F98F1CC01C403707FCFFEF
:101140007D17F98F1CC05C4041777D17F98F5CC01B
:10115000B7079F001CC4EF00A07F1C4C370602009D
:1011600093E707021CCCB717014003A707409386FB
:1011700007401377F7F023A0E74003A70740136762
:10118000070823A0E74089479CCA02C002C21C4C42
:1011900037070140A16693E717001CCC5C43D58F4D
:1011A0005CC31C404167B7160240D98F1CC0096759
:1011B0009C42F18F3EC2824785073EC0924781E73D
:1011C0008247E397E7FEB71702409C431397E70077
:1011D0006359070685473EC2124785476310F706E5
:1011E000B72702409843C176FD16719B98C3984378
:1011F0001367170098C3B7170240D843D8C3D84322
:10120000758FD8C3D843C166558FD8C39843B706E6
:101210000001558F98C3984393166700E3DD06FEDF
:10122000D843B7160240719BD8C3D8431367270031
:10123000D8C32147DC42B18BE39EE7FE21016FE07A
:10124000DFE602C251BFEFE2BFE5371702405C4361
:10125000370400209146B18B130404016385D70045
:10126000A1466382D704B7376E01938707601CC01D
:10127000B7160240DC420840918313F7F700B70726
:10128000002093870700BA978C23DC4293F5F50F73
:1012900093F707083357B50081E7EFE03FE22A876D
:1012A00018C06FE09FE05C43B777DC02938707C00C
:1012B0007DBF01A097F1FF1F93814158138181FCED
:1012C000171500001305C50597F5FF1F938585D3F6
:1012D00017F6FF1F130686D663FAC50083220500A2
:1012E00023A0550011059105E3EAC5FE17F5FF1F80
:1012F0001305C5D49385018B6377B50023200500C2
:101300001105E36DB5FEB722000093820288739049
:1013100002308D427390428097F2FFFF938282CE1B
:1013200093E2320073905230EFF09FDE97F2FFFFAE
:101330009382E2787390123473002030B7F7FF1F66
:1013400003A5477C828001771303004093020004C9
:10135000B7270240B70302007D1763186602944B5B
:1013600093E6260094CBC8CB944B93E6060494CB2B
:10137000D447858AF5FE63106602944B1305054039
:10138000F59A94CBFD15F1F98280E31E56FC944B3F
:10139000B3E67600C1BFE31756FE944B1305050470
:1013A000F98E94CBC5B7B70700F8AA97116763F811
:1013B000E710EFE2FFCE3307B500B7460008511142
:1013C000AA849307D00F63EEE6063367B500137760
:1013D000F7039307E00F35E7ADC5B7066745B727B5
:1013E0000240938636123797EFCDD4C31307B79ACE
:1013F000D8C3D4D3D8D39307F03F63F5B70213769D
:10140000F53F930600403387C640938505C03303FC
:10141000E5003384C500630AD70263E48704A2872A
:101420009A86BDA09307F00363E7B708B727024089
:10143000984BA166558F98CB984B1367070898CBAC
:1014400091473E8531016FE05FC613060040854538
:101450001AC0D53D02439307F03F9A8663F587048F
:101460000147330683009377F63F9A8699C39376B4
:1014700006C0B305F44013060040A9811A853AC49A
:1014800036C23EC0C9358247224792463E8401CFCC
:101490001306000493556700268536C23EC06535A5
:1014A000824792463E8459D0130600049355640047
:1014B0003685513DA5BF2E8781478146D1BF930711
:1014C000F00F3E858280B70700F8AA97116763F393
:1014D000E70E3307C500B74600089307D00F63ED4A
:1014E000E60C3367C5001377F7039307E00F69E74E
:1014F00061C64111B7066745B727024022C626C418
:10150000938636123797EFCDD4C31307B79AD8C353
:10151000D4D3D8D34177B387A5407D173EC0198275
:10152000B7270240C16537030800B70204003AC27A
:1015300002473304A700984B4D8F98CB984B3367E5
:10154000670098CBD847058B75FF93030004B3045D
:10155000E4008440B306E50084C2944BB3E6560031
:1015600094CBD447858AF5FE1107E31277FE984B9A
:10157000930605044D8F98CBC8CB984B136707048F
:1015800098CBD847058B75FF984B12457D16698F10
:1015900098CB19EE984BA1663244558F98CB984B57
:1015A000A2441367070898CB91473E85410182808A
:1015B0003685BDBF9307F00F3E858280B70667452D
:1015C000B7270240938636123797EFCDD4C313075F
:1015D000B79AD8C394C798C7984B1367070298CB9C
:1015E000984B1367070498CBD847058B75FF984B2A
:1015F000B70600201377F7FD98CB984B13670701C8
:1016000098CB938706801D8D372702409386C6802E
:101610003306F500122292A35047058A75FE89070A
:10162000E398D7FE1C4BBD9B1CCB1C4B93E70708D4
:101630001CCB8280EFE2DFA6B707002003A707805C
:10164000C20551112E953AC02AC203A787803AC419
:1016500083A747806304F5000A858D3731016FE069
:10166000DFA4EFE2FFA3B707002083A60780511194
:1016700036C083A6478036C203A7878068813AC4F4
:1016800083A7078002476304F7000A85053F3101FD
:101690006FE0BFA1944593F7060193F2F60081C76E
:1016A000DC41B3E2F20083D3050093F7F30FA5C347
:1016B00003230500611122C226C081471304800262
:1016C0009304800405473316F70033F7C300631211
:1016D000E602939527003D473317B7001347F7FFFE
:1016E00033736700B395B20033E36500639D8600F2
:1016F00050C985072147E397E7FC12442320650082
:10170000824421018280E39696FE10C9DDB7828073
:10171000EFE21F99111146212A8428002EC091243E
:10172000C246C204C18093F404FCB7450F00938500
:1017300005243685C20436C2C180EFE03F98458D4E
:10174000420541814AA01E209246C207C183F99BEF
:10175000C207C1831EA082479043E1679387076A4F
:101760009315160063E6C7043685EFE03F95AA8718
:101770004205418191466373D50091471395070156
:1017800041814AAC1E20024793E717001EA01E208D
:1017900056233227C207C183D18E93F757BFD58F07
:1017A0001EA016275E27D58F1EA471016FE0FF8F44
:1017B0008247EA23B167FD176310F502B2953685BB
:1017C000EFE0DF8F420541819317450199E31365EF
:1017D0001500A1675D8D75B7B387C5008E07B3850A
:1017E000C7003685EFE09F8D4205418191675D8D91
:1017F000E1BF1E2189C593E717001EA18280C207A1
:10180000C183F99BC207C183CDBF1E2189C593E760
:1018100007101EA18280C207C18393F7F7EFC207AA
:10182000C183C5BF1E2189C593E707201EA1828001
:10183000C207C18393F7F7DFC207C183C5BF1E216B
:1018400089C593E707401EA18280C207C18393F731
:10185000F7BFC207C183C5BF0EA982800A291375CD
:10186000F50F828093F7E50F19C293E71500C207C1
:10187000C1831EA982805E290A2D42055D8D6D8D72
:10188000220521810D8D133515008280611102C062
:1018900002C293D7C5012AC23EC08247A205A181D8
:1018A00099CB9247D1073EC29247884321016D8D63
:1018B0003335A00082809247C181E107EDB7B73789
:1018C000004088C38280B7370040C8C38280B737E2
:1018D000004088C78280AD67373700409387A7AA4A
:1018E0001CC38280B567373700409387C7CC1CC3C1
:1018F000371702405C53898BF5DF828083A6C18A4B
:10190000854718216390F6021C31639CD7023C2165
:101910009A0793E707F8B7E600E093F7F70FBA9650
:101920002380F6408546935757003397E60054418D
:1019300089CE938707048A07B7E600E0B69798C375
:101940008280EDF33C219A07F9B793870706E5B744
:10195000371702401C430E0593F777F05D8D08C3DF
:101960008280EFE2EFF3371702405C4391462A840E
:10197000B18B6385D700A1466380D708B7376E0166
:10198000938707601CC0B7160240DC42918313F7AF
:10199000F700B707002093878702BA978C23DC42B1
:1019A000184093F5F50F93F707083355B70081E713
:1019B0003A85EFE0AFF048C008C448C4B71702400A
:1019C000DC438D46AD83FD8B13D737008A07F18B3F
:1019D000D98F13F6370113F7370063F4C600138766
:1019E00047FFB707002093874701BA978C23EFE0A2
:1019F000EFEC08C86FE06FEB5C43B777DC029387CE
:101A000007C049B799C5371702401C4F5D8D08CFF5
:101A10008280B7170240984F1345F5FF798D88CF24
:101A2000828099C5371702405C4F5D8D48CF828018
:101A3000B7170240D84F1345F5FF798DC8CF828084
:101A4000EFE20FE61629F577FD17F58FF621DA2577
:101A50002111D58F1EA95625FD779387379FF58FC6
:101A6000D6212A842EC0D58F9625D58FB625D58F21
:101A70005EA55E29C207C18393F7F7CF5D8F5AA990
:101A80004800C535B74701409387078082456312F8
:101A9000F406C2475A24139517003E9542070E05D7
:101AA00041873E958C41635807048605EFE00FE1BE
:101AB000930540062AC0EFE06FE08247931445008B
:101AC000930540063E85EFE02FE25E24C207C18702
:101AD00063D507020E059305400613052503EFE0C5
:101AE000EFDD1D89C98CC204C18006A461016FE0CD
:101AF000CFDBB24745B78A0555BF120593054006AF
:101B000013052503EFE08FDB3D89E9BF91C55E2515
:101B10000967D98F5EA582805A25F977FD17F98F5D
:101B2000D5BF411106C62EC00DCD1841AA8705C3E9
:101B300058417D5511CB8546631BD700984723003C
:101B4000070023A207000545B24041018280984763
:101B5000824614A39847050798C7D8437D17D8C372
:101B6000DDB705468A85EFE0FFE7F1BF011122CC22
:101B70002EC206CE26CA2A848147930500026345F9
:101B800006029245BE95838505008DE563D8C702A0
:101B900063D4E702198E1305000293F526002AC0CC
:101BA00089C501E7930500032EC0858A814495EA23
:101BB000B2840DA08507F1B71D8EF1BF0146E1BFCC
:101BC000824522853AC832C63EC4A13FA24732466A
:101BD0004247FD14E34690FEB284635306008144FD
:101BE000058E63C7E702A6879246338797403697EC
:101BF0008305070095EDB2846344900463530600A7
:101C00000146F2406244D2443305F6000561828009
:101C10001D8FBA8793050003228532C83EC63AC499
:101C20000937B24722474246FD17EDF7BA9465BF20
:101C3000228532C63EC4F535A247324685076DB7C8
:101C40008245228532C43EC2E93DFD1422469247B8
:101C500065B7397106DE22DC26DA3EC232833A8667
:101C600089ED92469307000301476C08FC86FD3D11
:101C7000F2506254D25421618280AA843684AE87A5
:101C800091CA294701446317E30063D50500B307F0
:101C9000B04005448646A309010213073103938629
:101CA00066FC36C49A853E8532CA3AC81AC63EC01A
:101CB000EFE08FC3A546824732434247524663D482
:101CC000A600A2463695130505039306F7FFA30F5A
:101CD000A7FE9A853E8532CC3ACA1AC83EC636C09F
:101CE000EFE0CFBDB24742435247624663F9670413
:101CF00001CC29CA9247898BB1C79305D0022685AA
:101D000032C4053522467D169247918B95C306470E
:101D10009307100632C4930500032685631EF7025D
:101D20000935930580072685ED3B2246090479167F
:101D30001647924682452685153D229515BFAA87EE
:101D400002478DB782469307D0020144A38FF6FE67
:101D50009307E7FF3EC04DBFE93393058005E1B728
:101D60000145828001458280130181FD22D026CE6B
:101D700006D22AC4AE82328402C681448385020020
:101D800089EDA24781C781453E85613B925002544F
:101D90002685F244130181028280930750026388F2
:101DA000F500224516C88504AD3BC24239A8838799
:101DB000120013871200639CB7002245930550025E
:101DC0003AC8853342478504BA82850245BFD5DBD0
:101DD0009306B0026389D70463C8F6009306300205
:101DE0006386D704814705A09306D002638AD70093
:101DF00093060003E398D7FE13872200894721A0AA
:101E0000138722008547830607001306B002638309
:101E1000C6046341D60213063002638BC602BA823F
:101E20000145A54681A0138722006DBF13872200BC
:101E30009147D1BF1306D0026389C6001306000381
:101E4000E39FC6FC93E7270031A005078547C1BF84
:101E500093E747000507E1B71316250032950605FD
:101E60003A95850203860200130706FD9375F70F66
:101E7000E3F4B6FE1307E0029946631EE60085020E
:101E80008146A54503860200130606FD1377F60F6B
:101E900063F5E50236C6038702001306A006630D4C
:101EA000C70A6343E6021306C0046307C70A1306A2
:101EB0008006630CC70881452DA813972600BA96A3
:101EC0008606B29685027DBF130640076306C708E3
:101ED0001306A0076302C7081306C0068145631AEC
:101EE000C700038612008D456314E6008502914504
:101EF000850203860200930300061307100663C4DD
:101F0000C300130710049303700663C4C30693034E
:101F10005006635376189303700463C1C30493059A
:101F20005004635BB61613073004E310E6EA18406A
:101F30009303440016CA230CE1001EC8A30C010041
:101F40000147BE862A862C0849A8038612008145CF
:101F5000E311E6FA890271BF8502B1BF930630062C
:101F6000E307D6FC63CEC606930680056303D6025C
:101F7000A9BD930630076304D60463CBC60293065B
:101F8000F0066302D60E9306000793E74700E31EB0
:101F9000D6E29146639FD50A930384000C405040DB
:101FA00016CA3AC23EC01EC8AA870147C146B9A098
:101FB000930650076308D6069306800745BF18406E
:101FC000B7260000930344009385463111C3BA85B8
:101FD000324716CA1EC8BE862A862245413E0DA03B
:101FE00091466394D502930384000C40504016CA76
:101FF0003AC23EC01EC8AA870547A94622458D336E
:10200000C243AA941E84D242C9B3B2460C4016C839
:1020100036C23AC011042A87854629462245153919
:10202000AA9461B39146639DD500930384000C404C
:10203000504016CA3AC23EC01EC8AA87014775BFA3
:10204000B2460C4016C836C23AC011042A878146EF
:10205000E9B7B24616C80C40414636C23AC0110430
:102060002A87814665BF9146639ED500930384000D
:102070000C40504016CA3AC23EC01EC8AA8701474B
:10208000A146ADBFB2460C4016C836C23AC01104D4
:102090002A878146214659B70C40130684004040E8
:1020A0003AC22A87224532C83EC02286B687A94650
:1020B00016CA4D39AA944244B9B71301C1FD2EC8BE
:1020C00032CAAA851008014506C636CC3ACE3ED0A3
:1020D00032C05939B240130141028280411122C4F9
:1020E00026C206C61C21AA840144DC818307310074
:1020F000050499EFA9479305310005460145DC81A8
:10210000EFE05F8E2285B2402244924441018280FA
:102110000546930531000145EFE0DF8CB38784006D
:102120009C23DC81E1B7B3C7A5008D8B3307C500C5
:1021300081E78D4763E7C702AA87637EE50A94219A
:1021400085078505A38FD7FEE3EBE7FE8280942108
:1021500085078505A38FD7FEE3EBE7FE0244110157
:10216000828093763500AA8789CA942185078505E0
:10217000A38FD7FE93F63700C5BF9376C7FF1386AC
:1021800006FE63F5C706711122C0C04903A305000E
:1021900083A38500C0CB804D23A0670003A3450027
:1021A00080CFC04D23A2670083A2C50003A3050111
:1021B00093854502C0CF03A4C5FF23A4770023A6BF
:1021C000570023A867009387470223AE87FEE3EEFC
:1021D000C7FAE3F3D7F890419107910523AEC7FE04
:1021E000CDBF90419107910523AEC7FEE3EBD7FE2B
:1021F000E3E7E7F482808280496E697420493243C4
:102200000A0D0000493243205772697465204F4B14
:102210000A0D000025730D0A0000000048656C6C73
:102220006F2C20576F726C64210000002A2A2A2A22
:102230002A2A2A2A2A2A2A2A2A0000005379737471
:10224000656D436C6B3A25640D0A00004368697044
:1022500049443A253038780D0A00000055736572FC
:102260003A253038780A0D00426F6F7420636F751D
:102270006E742069732025640D0A00004045453ABC
:10228000253038780D0A0000253032782000000013
:102290000D000000405045453A253038780D0A00C1
:1022A00045726173650A0D00636865636B20464C77
:1022B0004153485F4144525F52414E47455F45524A
:1022C000524F5220464C4153485F414C49474E5F64
:1022D0004552524F52206F7220464C4153485F4F37
:1022E000505F52414E47455F4552524F520D0000DC
:1022F00057726974650A0D00253464202534642002
:102300000000000025346420253464202025640D5D
:0C2310000A000000286E756C6C290000AB
:10231C000102030405060708010203040506070869
:10232C00006CDC020204060804080C1008101820CB
:10233C00102030402040608001020304050607088D
:08234C00010203040506070865
:08235400000000000000000081
:103FC000000102030405060708090A0B0C0D0D0F7A
:103FD00000000000000000000000000000000000E1
:103FE00000000000000000000000000000000000D1
:103FF00000000000000000000000000000000000C1
:00000001FF
