:100000006F00206C0000000032010000340100008D
:1000100000000000000000000000000000000000E0
:1000200000000000000000000000000000000000D0
:10003000A203000000000000C00600000000000055
:10004000C0060000C0060000C0060000C006000098
:10005000C0060000C006000092010000C0060000BB
:10006000C0060000C0060000C0060000C006000078
:10007000C0060000C0060000C0060000C006000068
:10008000C0060000C0060000C0060000C006000058
:10009000C0060000C0060000C0060000000000000E
:1000A000511126C022C206C4828282441244A24058
:1000B00031018280634E050263C305042E86AA8542
:1000C0007D5515C285466378B6006356C0000606A6
:1000D0008606E36CB6FE014563E4C500918D558D3F
:1000E00085820582F5FA82808682C93F2E858282CA
:1000F0003305A04063D70500B305B040C1B7B305D1
:10010000B0408682653F3305A0408282868263C705
:100110000500634905005D372E858282B305B04036
:10012000E35B05FE3305A040513F3305B0408282BA
:10013000000001A001A0EFF2BFF6511185451305A3
:10014000000202C002C202C4EF00500285454145D0
:10015000EF00D001371501400D44C547C1448A85E1
:10016000130505407C8026C422C2412589477C8036
:100170008A8593078004371501403EC4BD25914709
:100180008A85371501407C8026C422C2B92D3101F1
:1001900029BF711122C0370402401C40898B85C3DE
:1001A0009387C18098239145371501400507137740
:1001B000F70F98A39023058A652D89475CC00244F8
:1001C000110173002030B7170240D843C1769386DF
:1001D000F67F758FD8C3984F45767D161367072332
:1001E00098CF3717014083260740F18E2320D74050
:1001F000832607407D761306F60FF18E2320D74025
:1002000014433706F1FF7D16F18E14C3D847B72685
:10021000014013670720D8C7D8471377F7DFD8C73F
:10022000B72701403707300023A6E74237170400FD
:1002300023A807421307478623AAE7423787000708
:10024000130707FC23A8E74003A78740136717009D
:1002500023A4E74003A787401367870023A4E74050
:1002600003A78640218B6DFF03A7864013674700D5
:1002700023A4E640B726014003A7864093870640A3
:10028000118B7DFB37160240584A9386C644B7054A
:1002900040001367170058CA3707024014CBB7064F
:1002A00000209386C60354CB914654C78D6693862F
:1002B000265A14C7130600F8B7E600E0238BC640A1
:1002C00023A0B610144737060E001306261093E637
:1002D000160014C7D44393E60610D4C39447D18EB6
:1002E00094C798474D8F98C78280EFF27FDB2A84AE
:1002F00015657111130555552EC041231375F40F63
:10030000492382452E8551236923592B110171BB45
:10031000EFF21FD9894537150140B123B7070020F7
:100320009386870398221335150093878703799B5B
:10033000498F98A2984289460D8B6309D70263EFD3
:10034000E60285466311D70298230D8B1367470099
:1003500098A301459843058B931617009823759B26
:10036000558F98A399B398230D8BDDB788439823B5
:1003700009811375F5030D8B98A3E9BF9843930684
:10038000F003014509831377F703E305D7FC98438E
:100390009423098305071377F7030A078D8A558F7E
:1003A000E1BF611122C226C0A5370DCD914713844C
:1003B000418163E5A7001C4085071CC01040B714AD
:1003C00001408545058A138504405D21104089451B
:1003D00013850440098A69291040C14513850440EA
:1003E000118A79219387C18098231377F70FA38609
:1003F000E180238007001244B70700200547A38C43
:10040000E702B7F700E023A207008244210173004E
:100410002030EFF2FFC889249D25138741815623A0
:1004200015671307A75A938741816384E60023A0C9
:100430000700156771651307A75A13050520DAA38E
:10044000B7040020BD2583A504013715000013055E
:10045000C510EF007049D52CAA853715000013058B
:10046000C511EF007048B707002003D447808145CD
:1004700005041374F40F2285F12C37150000A285B2
:100480001305C512EF0050467D310567B7E700E060
:1004900037F400E023A0E7105C40A945F99B5CC05D
:1004A00003A5040121397D1508C8BD47056723242C
:1004B00004001CC0930507FA0D45053D37150000E3
:1004C00013050514EF005042371500001305C5153C
:1004D000EF009041CD39371500001305051737049B
:1004E0000020EF0070401304C403B7040020552619
:1004F000138794031C2393F7F70FF5DB2300070002
:100500000E2032203715000013058517EF00D03D6F
:100510004E20722083C6D180371500001305451880
:10052000EF00903CD9B7EFF2BFB7371402401C4040
:100530003707FFF8611193E717001CC05C40414585
:10054000F98F5CC01C403707F7FE7D17F98F1CC080
:100550001C403707FCFF7D17F98F1CC05C404177BA
:100560007D17F98F5CC0B7079F001CC4B1261C4CD7
:100570003706020093E707021CCCB717014003A718
:100580000740938607401377F7F023A0E74003A7BF
:1005900007401367070823A0E74089479CCA02C0A9
:1005A00002C21C4C37070140A16693E717001CCC20
:1005B0005C43D58F5CC31C404167B7160240D98F9E
:1005C0001CC009679C42F18F3EC2824785073EC02E
:1005D000924781E78247E397E7FEB71702409C43C3
:1005E0001397E7006358070685473EC212478547C1
:1005F0006310F706B72702409843C176FD16719B3A
:1006000098C398431367170098C3B7170240D8439D
:10061000D8C3D843758FD8C3D843C166558FD8C3C4
:100620009843B7060001558F98C398439316670007
:10063000E3DD06FED843B7160240719BD8C3D8430A
:1006400013672700D8C32147DC42B18BE39EE7FE46
:100650002101A1BC02C259BFEFF29FA4371702408B
:100660005C43370400209146B18B13040401638579
:10067000D700A1466380D704B7376E019387076020
:100680001CC0B7160240DC420840918313F7F70004
:10069000B707002093870700BA978C23DC4293F5B5
:1006A000F50F93F707083357B50099E3013C2A8704
:1006B00018C0E5BA5C43B777DC02938707C0C9B7B7
:1006C00001A09701002093816117138181FC171508
:1006D00000001305E5AC970500209385A592170649
:1006E00000201306A69563FAC5008322050023A007
:1006F000550011059105E3EAC5FE17050020130515
:10070000E593938541816377B500232005001105AA
:10071000E36DB5FEB7220000938202887390023029
:100720008D4273904280970200009382A28D93E2E3
:10073000320073905230EFF01FDF97020000938277
:1007400082CD7390123473002030B7F7FF1F03A5DA
:10075000477C8280B707002003A70780C20551119C
:10076000AA953AC02EC283A78780B70667459386AD
:1007700036123EC43797EFCDB7270240D4C31307D4
:10078000B79AD8C394C798C7984B1367070298CBFA
:10079000984B1367070498CBD847058B75FF984B88
:1007A000B705002019461377F7FD98CB984B1367D0
:1007B000070198CB0147B72702409316170068003E
:1007C0003695035545FFAE962390A680D447858A7B
:1007D000F5FE0507E313C7FE984B3D9B98CB984B5E
:1007E0001367070898CB31018280944593F706017F
:1007F00093F2F60081C7DC41B3E2F20083D3050037
:1008000093F7F30FA5C303230500611122C226C08D
:100810008147130480029304800405473316F700D0
:1008200033F7C3006312E602939527003D47331761
:10083000B7001347F7FF33736700B395B20033E394
:100840006500639D860050C985072147E397E7FC53
:10085000124423206500824421018280E39696FEA3
:1008600010C9DDB7828008456D8D3335A0008280C8
:1008700019C20CC982804CC98280B737004088C336
:100880008280B7370040C8C38280B737004088C72E
:100890008280AD67373700409387A7AA1CC3828048
:1008A000B567373700409387C7CC1CC33717024062
:1008B0005C53898BF5DF8280371702401C430E059D
:1008C00093F777F05D8D08C38280EFF26FFD3717E5
:1008D00002405C4391462A84B18B6385D700A146D0
:1008E0006380D708B7376E01938707601CC0B716BF
:1008F0000240DC42918313F7F700B707002093878B
:100900008702BA978C23DC42184093F5F50F93F7D2
:1009100007083355B70081E73A85EFF02FFA48C052
:1009200008C448C4B7170240DC438D46AD83FD8B35
:1009300013D737008A07F18BD98F13F6370113F7D6
:10094000370063F4C600138747FFB707002093877B
:100950004701BA978C23EFF06FF608C86FF0EFF4F9
:100960005C43B777DC02938707C049B799C537174F
:1009700002401C4F5D8D08CF8280B7170240984F10
:100980001345F5FF798D88CF8280EFF26FF116293C
:10099000F577FD17F58FF621DA252111D58F1EA9E0
:1009A0005625FD779387379FF58FD6212A842EC051
:1009B000D58F9625D58FB625D58F5EA55E29C20722
:1009C000C18393F7F7CF5D8F5AA94800FD3DB74724
:1009D00001409387078082456312F406C2475A2478
:1009E000139517003E9542070E0541873E958C41B1
:1009F000635807048605EFF06FEC930540062AC0A4
:100A0000EFF0CFEB824793144500930540063E85F7
:100A1000EFF08FED5E24C207C18763D507020E0594
:100A20009305400613052503EFF04FE91D89C98C96
:100A3000C204C18006A461016FF02FE7B24745B739
:100A40008A0555BF12059305400613052503EFF0EF
:100A5000EFE63D89E9BF91C55E250967D98F5EA59F
:100A600082805A25F977FD17F98FD5BF93F5F51FC9
:100A70004EA182800A216D8D3335A0008280EFF275
:100A80002FE2B707002003A50701B7157A00938569
:100A90000520EFF0AFE21375F50F2388A1809317BF
:100AA0005500898F8A073E950E052397A1806FF028
:100AB000CFDFEFF2EFDE2A841165111185451305B2
:100AC00005026D35930700027C80371501408D4784
:100AD0003EC28A85E147130505403EC4393322C62C
:100AE00037440140B70708006C00130504803ECA74
:100AF00002C8231C0100513D854513050480A13F18
:100B000071016FF08FDAEFF2AFD97111AE84014449
:100B1000635DC402B7470140138707803A85930598
:100B2000000432C0813FB747014013870780024667
:100B300075D5338784008305070013850780050476
:100B4000C205C18125370246E1B7328511016FF038
:100B5000CFD5411106C62EC00DCD1841AA8705C3B9
:100B600058417D5511CB8546631BD700984723001C
:100B7000070023A207000545B24041018280984743
:100B8000824614A39847050798C7D8437D17D8C352
:100B9000DDB705468A85853FF9BF011122CC2EC2FB
:100BA00006CE26CA2A8481479305000263450602C1
:100BB0009245BE95838505008DE563D8C70263D451
:100BC000E702198E1305000293F526002AC089C595
:100BD00001E7930500032EC0858A814495EAB2841B
:100BE0000DA08507F1B71D8EF1BF0146E1BF82451B
:100BF00022853AC832C63EC4A93FA2473246424780
:100C0000FD14E34690FEB284635306008144058ED2
:100C100063C7E702A68792463387974036978305D6
:100C2000070095EDB28463449004635306000146C7
:100C3000F2406244D2443305F600056182801D8F84
:100C4000BA8793050003228532C83EC63AC41137DD
:100C5000B24722474246FD17EDF7BA9465BF228599
:100C600032C63EC4FD35A247324685076DB7824580
:100C7000228532C43EC2F13DFD142246924765B73B
:100C8000397106DE22DC26DA3EC232833A8689EDED
:100C900092469307000301476C08FC86FD3DF25025
:100CA0006254D25421618280AA843684AE8791CA6C
:100CB000294701446317E30063D50500B307B0403B
:100CC00005448646A309010213073103938666FC97
:100CD00036C49A853E8532CA3AC81AC63EC0EFF07D
:100CE000AFC0A546824732434247524663D4A6006E
:100CF000A2463695130505039306F7FFA30FA7FE3B
:100D00009A853E8532CC3ACA1AC83EC636C0EFF044
:100D1000EFBAB24742435247624663F9670401CCD7
:100D200029CA9247898BB1C79305D002268532C460
:100D30000D3522467D169247918B95C30647930742
:100D4000100632C4930500032685631EF702113591
:100D5000930580072685F53B224609047916164738
:100D6000924682452685153D229515BFAA870247E2
:100D70008DB782469307D0020144A38FF6FE9307F6
:100D8000E7FF3EC04DBFF13393058005E1B7014554
:100D9000828001458280130181FD22D026CE06D2B9
:100DA0002AC4AE82328402C681448385020089ED62
:100DB000A24781C781453E85693B925002542685F2
:100DC000F244130181028280930750026388F50088
:100DD000224516C88504B53BC24239A88387120054
:100DE00013871200639CB7002245930550023AC84E
:100DF0008D3342478504BA82850245BFD5DB930611
:100E0000B0026389D70463C8F60093063002638694
:100E1000D704814705A09306D002638AD7009306C2
:100E20000003E398D7FE13872200894721A0138788
:100E300022008547830607001306B0026383C604B9
:100E40006341D60213063002638BC602BA820145A3
:100E5000A54681A0138722006DBF1387220091470A
:100E6000D1BF1306D0026389C60013060003E39FB7
:100E7000C6FC93E7270031A005078547C1BF93E76C
:100E800047000507E1B713162500329506053A9588
:100E9000850203860200130706FD9375F70FE3F43E
:100EA000B6FE1307E0029946631EE60085028146FE
:100EB000A54503860200130606FD1377F60F63F5BA
:100EC000E50236C6038702001306A006630DC70AB3
:100ED0006343E6021306C0046307C70A13068006CD
:100EE000630CC70881452DA813972600BA9686067D
:100EF000B29685027DBF130640076306C708130636
:100F0000A0076302C7081306C0068145631AC7001D
:100F1000038612008D456314E60085029145850223
:100F200003860200930300061307100663C4C30080
:100F3000130710049303700663C4C306930350069B
:100F4000635376189303700463C1C304930550047C
:100F5000635BB61613073004E310E6EA1840930308
:100F6000440016CA230CE1001EC8A30C010001476F
:100F7000BE862A862C0849A8038612008145E31103
:100F8000E6FA890271BF8502B1BF93063006E30716
:100F9000D6FC63CEC606930680056303D602A9BDC0
:100FA000930630076304D60463CBC6029306F006AB
:100FB0006302D60E9306000793E74700E31ED6E2CE
:100FC0009146639FD50A930384000C40504016CA93
:100FD0003AC23EC01EC8AA870147C146B9A09306BF
:100FE00050076308D6069306800745BF1840B7161A
:100FF0000000930344009385461911C3BA85324714
:1010000016CA1EC8BE862A862245413E0DA09146BC
:101010006394D502930384000C40504016CA3AC230
:101020003EC01EC8AA870547A94622458D33C24344
:10103000AA941E84D242C9B3B2460C4016C836C226
:101040003AC011042A878546294622451539AA94B3
:1010500061B39146639DD500930384000C405040DA
:1010600016CA3AC23EC01EC8AA87014775BFB2461B
:101070000C4016C836C23AC011042A878146E9B727
:10108000B24616C80C40414636C23AC011042A87FF
:10109000814665BF9146639ED500930384000C4052
:1010A000504016CA3AC23EC01EC8AA870147A14690
:1010B000ADBFB2460C4016C836C23AC011042A87EA
:1010C0008146214659B70C401306840040403AC27D
:1010D0002A87224532C83EC02286B687A94616CA4C
:1010E0004D39AA944244B9B71301C1FD2EC832CA82
:1010F000AA851008014506C636CC3ACE3ED032C08D
:101100005939B2401301410282800000537973744F
:10111000656D436C6B3A25640D0A00004368697085
:1011200049443A253038780D0A000000426F6F7448
:1011300020636F756E742069732025640D0A0000AA
:101140000D0D0A0A6164635F646D615F6F70616DAC
:1011500070206578616D706C650A0D00696E697448
:1011600069616C697A696E67206164632E2E2E0056
:10117000646F6E652E0A0D002534642025346420CA
:101180000000000025346420253464202025640DEF
:0C1190000A000000286E756C6C2900003D
:10119C0001020304050607080102030405060708FB
:1011AC00006CDC020204060804080C10081018205D
:1011BC00102030402040608001020304050607081F
:0811CC000102030405060708F7
:0811D400000000000000000013
:00000001FF
