:100000006F00D058000000003201000034010000F1
:1000100000000000000000000000000000000000E0
:1000200000000000000000000000000000000000D0
:1000300070040000000000008A0D000000000000B5
:100040008A0D00008A0D00008A0D00008A0D000054
:100050008A0D00008A0D0000F80300008A0D0000E0
:100060008A0D00008A0D00008A0D00008A0D000034
:100070008A0D00008A0D00008A0D00008A0D000024
:10008000040300008A0D00008A0D00008A0D0000A4
:100090008A0D00008A0D00008A0D0000000000009B
:1000A000511126C022C206C4828282441244A24058
:1000B00031018280634E050263C305042E86AA8542
:1000C0007D5515C285466378B6006356C0000606A6
:1000D0008606E36CB6FE014563E4C500918D558D3F
:1000E00085820582F5FA82808682C93F2E858282CA
:1000F0003305A04063D70500B305B040C1B7B305D1
:10010000B0408682653F3305A0408282868263C705
:100110000500634905005D372E858282B305B04036
:10012000E35B05FE3305A040513F3305B0408282BA
:10013000000001A001A0EFF2BFF623860180A38E8C
:1001400001822147238F0182238EE182A3840180D3
:1001500011651301C1FD2388018285451305050240
:100160002384018002C402C602C802CA02CC02CEA5
:1001700002D002C002C2EF10801B371401408D472D
:10018000930400023EC62C00E1471305044064843A
:100190003EC8EF00B07D930700047C842C0091479B
:1001A000130504403EC8EF00707CF16737440140FE
:1001B000938707204C083ECA13050480B7070C003C
:1001C0003ECE02CC23100102EF1040188357C480AA
:1001D0000A851304048093E707025EA485475C81C7
:1001E00085473EC26480EF10000485452285EF10EC
:1001F000A0221301410255BD03C581801375F50F7F
:100200003335A0008280938781809C2393868180F0
:1002100093F7F70FEDDB93870183982313162700DD
:10022000138701813297184323A6E1809823137620
:10023000F70F130716001377F70F98A3370700205F
:10024000130787033297082398231D461375F50F6C
:100250006374E60023800700374701408357C78057
:10026000C207C18393F7F7FDC207C1832316F78046
:100270009C22FD1793F7F70F9CA28357C78093E743
:1002800007022316F78082809387C1839C2393867D
:10029000C18393F7F70FEDDB374701401307078062
:1002A0005E2793F7070889EF420541814AA3B747C4
:1002B000014003D7C780136707082396E780828031
:1002C0005E27C207C18393F7F7F7C207C1835EA712
:1002D0009387D18398231376F70F130716001377AC
:1002E000F70F98A313874183329708A398231D46DD
:1002F0006374E600238007009C22FD1793F7F70F35
:100300009CA275B7B74701401387078083D7078042
:1003100093F70702A9C393879180522398231376FA
:10032000F60F9376F70F138716001377F70F98A33E
:100330003707002013078703369710A398239D469D
:1003400063F4E60023800700138781801C23850760
:1003500093F7F70F1CA3B74701409385078083D716
:10036000078093F70708B1C39387C1839C231D457A
:100370001387C183636DF5029387E183942313F69A
:10038000F60F9306160093F6F60F94A39386418317
:10039000B2969422D6A194236374D50023800700DB
:1003A0001C23850793F7F70F1CA373002030DE256D
:1003B000C207C18393F7F7F7C207C183DEA5F5B77C
:1003C000931615009387C184B69792239A231182BE
:1003D000118F420741839AA31387418536971223D1
:1003E0009A233297420741839AA38A239387C18530
:1003F0001181B6978AA38280B70702409C43898BFC
:10040000B5C79387418A9843611122C226C0050768
:1004100098C39C43858BB1C7B7170140414798CB20
:100420000145793F9304F03F373401403385A440C0
:10043000232EA4C2054569373385A440232AA4C2CC
:100440000945BD3F3385A440232CA4C20D458D3FF3
:100450001244B70702400947D8C382442101730000
:100460002030B71701404147D8CB5DBF7300203023
:10047000B717014098471386018414220D83134750
:100480001700F99A058B558F18A218428946938751
:1004900001840D8B6301D70263E6E60A8546631982
:1004A000D70098230D8B1367470098A3014719A81D
:1004B00098230D8BDDBF9843942309838D8A13778E
:1004C000F70394A39443858A139616009423F59A10
:1004D000D18E94A3938741849443850694C339C3F2
:1004E00091469387018B63E5E6009843050798C31F
:1004F00094433717014013070740858ABDC68546D8
:1005000014CB94433717014013070740898AADC2C3
:10051000894614CB9C43918BB9CFB7170140130781
:10052000000298CB9387418A944323A4D18A23A0C5
:10053000070005472384E184B7F700E023A2070002
:100540007300203094431306F0030147898293F629
:10055000F603E389C6F698439423098305071377C6
:10056000F7030A078D8A558F89B7854654CB51BF4B
:10057000894654CB45B7B717014013070002D8CBC3
:1005800055B7EFF2FFB1611101446345C4003285F4
:10059000210121BEB3878500882332C22EC0ED31F0
:1005A000050412468245D5B7EFF29FAF130181FDD6
:1005B000EF00E07609651305F50DEF00103893871D
:1005C000018BDA2395679387A75A1384018B630401
:1005D000F7002320040095679387A75A5EA0A13EE9
:1005E000B707002083A5070137250000130545A3A1
:1005F000EF10603DEF001002AA85372500001305BB
:1006000045A4EF10403C370700208325078037259D
:10061000000093040780130545A5EF10C03AC620DB
:100620008145850493F4F40F2685EF00302E37259D
:100630000000A685130505A6EF10E03885451305D3
:10064000000202CE02D002D2EF00704E8545414535
:10065000EF00F04DB71401400547C1461385044033
:10066000F8866C080D4736D23AD0EF0030301306CA
:10067000000813850440F0866C081306800432D20B
:10068000EF00D02EA14513068004EC8637150140FB
:100690006C0832D2EF00902D0D4713060003C146BF
:1006A0006C08371501403AD0F08636D2EF00102C96
:1006B0001840B707002093840440058B630507406A
:1006C000054798C814403717014013070740898A27
:1006D000638E063E894614CB1840118B630B073E90
:1006E000371701409306000214CB856437E700E01A
:1006F00037F400E0232097105840A945799B58C053
:1007000003A50701653A7D1508C8BD4723240400E9
:1007100015651CC013055555EF00102D0D45EF0054
:10072000302D138504FAEF00302DEF00702DEF000F
:10073000102EB7170240D843C1769386F67F758F87
:10074000D8C3984F45767D161367072298CF371781
:10075000014083260740F18E2320D740832607409F
:100760007D761306F60FF18E2320D74083260740AF
:100770003706F1FF7D16F18E2320D740D847B726E4
:10078000014013670720D8C7D8471377F7DFD8C7CA
:10079000B72701403707300023A6E7423727040078
:1007A00023A80742130747C623AAE7423787E00773
:1007B000130707E023A8E74003A787401367170044
:1007C00023A4E74003A787401367870023A4E740DB
:1007D00003A78640218B6DFF03A786403726014083
:1007E0001367470023A4E64003278640930706408B
:1007F000118B7DFB37170240544B1306C644370557
:10080000400093E6160054CBB706024090CA138608
:100810004185D0CA1146D0C60D661306265A90C629
:1008200037E600E02320A6109046B7050E0093851A
:1008300025101366160090C6D0431164B704000853
:1008400013660610D0C390474D8E90C79447056637
:10085000B70500B0C98E94C71C4F930616811306C6
:100860000680D58F1CCFB71701409443C19A94C31B
:10087000944393E6B60094C394439206918294C342
:100880009443CD8E94C39443B70500F1FD15ED8ECE
:1008900094C39443B705000BCD8E94C35C47FD769B
:1008A0009386F67F5D8E50C75C471966930504FCFE
:1008B000F58FB73601405CC7938706C023940702C3
:1008C0001307F03FDAB7DA2B13671700DAAB9A3366
:1008D000136737009AB39A33136707039AB39A33AF
:1008E000136707309AB39A2F136707069AAF9A2FA8
:1008F000518F9AAFDA2F216613670706DAAF130715
:100900000020D8DBB8C398DFD8DF03D74704518F66
:100910002392E704370701405C4393E707045CC375
:1009200083D706C093E717002390F6C0930704FC13
:10093000A697B7240000138544A73EC0EF10A00877
:10094000130704FC3744000826C881473AC613043D
:1009500004FCB72400003247138504A83EC23E972A
:100960000C23EF104006924741478507E395E7FEC9
:10097000B7260000138586A8EF10000782453727A9
:1009800000001305C7A8EF100004B72600003727A2
:10099000000022C4A28736C23ACA8C23138504A859
:1009A0003ECCEF104002E24737470008130707FD2F
:1009B0008507E314F7FE9247138587A8EF10C0025E
:1009C00037250000130585A9EF00F07F0245930548
:1009D0000004752191476304F510372500001305C5
:1009E00005AAEF106000014402C08144EFF0DF80EF
:1009F0006318051EB7170140938707409C4793F77C
:100A0000070899C3EF00C07F138781841C2393F7E5
:100A1000F70FE9DF230007001387C1851A239387A7
:100A2000C18542074183B306974063749700B3863C
:100A3000E4401307F00F6367D7040D476364D704DE
:100A4000BA2342074183B306874063748700B30625
:100A5000E4401307F00F6367D7020D476364D702C2
:100A6000DA238246024642074183B306D7406374C5
:100A7000C700B306E6401307F00F6365D7000D47C4
:100A8000E376D7F68E23B22337250000130505AF92
:100A9000EF0070739387C185CE23F22383A6818AEA
:100AA000372500001305C5AFEF00F0719387C185AE
:100AB0008623A223DE23C2044204C207C183C1806D
:100AC00041803EC025B70547D8C8EDBE894654CB06
:100AD00021B1371701409306000254CB39B1D247F8
:100AE00082451385C7A8EF00106E0C20138504A85B
:100AF0000504EF00506DB7470008938707FDE396A4
:100B000087FE92470144138587A8EF00F06D916737
:100B1000938507FCC247138547A7EF00D06AB24709
:100B2000138504A8A2978C230504EF00D069C14760
:100B3000E317F4FE9247138587A8EF00F06A814718
:100B4000138541869305F00313070004B306F500EF
:100B50003386F54090A28507E39AE7FE372500002B
:100B6000130585AEEF003066024513060004938539
:100B7000418635219147E312F5E69167938507FC9D
:100B8000C2470144138547A7EF00F063B2471385BE
:100B900004A8A2978C230504EF00F062C147E31775
:100BA000F4FE9247138587A8EF001064D247824570
:100BB0001385C7A8EF003061A247138504A88C23D2
:100BC000EF007060A24785073EC42247B747000880
:100BD000938707FDE392E7FE9247138587A811B537
:100BE000EFF06FE2EFF04FEA11B5EFF26FCB371491
:100BF00002401C403707FFF8611193E717001CC043
:100C00005C404145F98F5CC01C403707F7FE7D17FB
:100C1000F98F1CC01C403707FCFF7D17F98F1CC0E3
:100C20005C4041777D17F98F5CC0B7079F001CC4FB
:100C3000A9251C4C3706020093E707021CCCB71706
:100C4000014003A70740938607401377F7F023A0DE
:100C5000E74003A707401367070823A0E740894739
:100C60009CCA02C002C21C4C37070140A16693E730
:100C700017001CCC5C43D58F5CC31C404167B71682
:100C80000240D98F1CC009679C42F18F3EC2824747
:100C900085073EC0924781E78247E397E7FEB71793
:100CA00002409C431397E7006359070685473EC2FD
:100CB000124785476310F706B72702409843C1766D
:100CC000FD16719B98C398431367170098C3B71715
:100CD0000240D843D8C3D843758FD8C3D843C16620
:100CE000558FD8C39843B7060001558F98C39843D2
:100CF00093166700E3DD06FED843B7160240719BEA
:100D0000D8C3D84313672700D8C32147DC42B18B2F
:100D1000E39EE7FE21016FF04FB902C251BFEFF22F
:100D20002FB8371702405C43370400209146B18B3F
:100D3000130404016385D700A1466382D704B73743
:100D40006E01938707601CC0B7160240DC42084062
:100D5000918313F7F700B707002093870700BA972E
:100D60008C23DC4293F5F50F93F707083357B50052
:100D700081E7EFF0AFB42A8718C06FF00FB35C4380
:100D8000B777DC02938707C07DBF01A097010020E1
:100D90009381C1AA138181FC171500001305C5D7E3
:100DA00097F5FF1F9385052617F6FF1F13060629E3
:100DB00063FAC5008322050023A0550011059105A3
:100DC000E3EAC5FE17F5FF1F130545279385018B41
:100DD0006377B500232005001105E36DB5FEB7224A
:100DE000000093820288739002308D42739042809B
:100DF00097F2FFFF9382022193E232007390523008
:100E0000EFF0BFDE97F2FFFF9382427A73901234C5
:100E100073002030B7F7FF1F03A5477C828001775E
:100E20001303004093020004B7270240B7030200F7
:100E30007D1763186602944B93E6260094CBC8CBCB
:100E4000944B93E6060494CBD447858AF5FE631051
:100E50006602944B13050540F59A94CBFD15F1F904
:100E60008280E31E56FC944BB3E67600C1BFE317C5
:100E700056FE944B13050504F98E94CBC5B7B707FE
:100E800000F8AA97116763F8E710EFF26FA1330734
:100E9000B500B74600085111AA849307D00F63EE3E
:100EA000E6063367B5001377F7039307E00F35E7DE
:100EB000ADC5B7066745B727024093863612379708
:100EC000EFCDD4C31307B79AD8C3D4D3D8D39307DD
:100ED000F03F63F5B7021376F53F93060040338782
:100EE000C640938505C03303E5003384C500630A1B
:100EF000D70263E48704A2879A86BDA09307F00314
:100F000063E7B708B7270240984BA166558F98CB87
:100F1000984B1367070898CB91473E8531016FF0D6
:100F2000CF981306004085451AC0D53D024393076C
:100F3000F03F9A8663F58704014733068300937771
:100F4000F63F9A8699C3937606C0B305F44013061C
:100F50000040A9811A853AC436C23EC0C9358247CD
:100F6000224792463E8401CF130600049355670042
:100F7000268536C23EC06535824792463E8459D0AA
:100F800013060004935564003685513DA5BF2E8796
:100F900081478146D1BF9307F00F3E858280B70716
:100FA00000F8AA97116763F3E70E3307C500B74649
:100FB00000089307D00F63EDE60C3367C500137785
:100FC000F7039307E00F69E761C64111B70667456C
:100FD000B727024022C626C4938636123797EFCD34
:100FE000D4C31307B79AD8C3D4D3D8D34177B38720
:100FF000A5407D173EC01982B7270240C16537035F
:101000000800B70204003AC202473304A700984B15
:101010004D8F98CB984B3367670098CBD847058B9B
:1010200075FF93030004B304E4008440B306E500B5
:1010300084C2944BB3E6560094CBD447858AF5FE20
:101040001107E31277FE984B930605044D8F98CB5A
:10105000C8CB984B1367070498CBD847058B75FF0F
:10106000984B12457D16698F98CB19EE984BA16667
:101070003244558F98CB984BA2441367070898CBFE
:1010800091473E85410182803685BDBF9307F00FB1
:101090003E858280B7066745B727024093863612A1
:1010A0003797EFCDD4C31307B79AD8C394C798C75F
:1010B000984B1367070298CB984B1367070498CB9C
:1010C000D847058B75FF984BB70600201377F7FDBF
:1010D00098CB984B1367070198CB938706801D8D9B
:1010E000372702409386C6803306F500122292A36A
:1010F0005047058A75FE8907E398D7FE1C4BBD9BB8
:101100001CCB1C4B93E707081CCB8280EFE25FF9F6
:10111000B707002003A70780C20551112E953AC0DA
:101120002AC203A787803AC483A747806304F500D7
:101130000A858D3731016FE05FF7EFE27FF6B70781
:10114000002083A60780511136C083A6478036C28F
:1011500003A7878068813AC483A707800247630496
:10116000F7000A85053F31016FE03FF4944593F79E
:10117000060193F2F60081C7DC41B3E2F20083D3AB
:10118000050093F7F30FA5C303230500611122C2E5
:1011900026C0814713048002930480040547331658
:1011A000F70033F7C3006312E602939527003D472B
:1011B0003317B7001347F7FF33736700B395B200D7
:1011C00033E36500639D860050C985072147E39797
:1011D000E7FC124423206500824421018280E396CB
:1011E00096FE10C9DDB78280B737004088C3828081
:1011F000B7370040C8C38280B737004088C78280B5
:10120000AD67373700409387A7AA1CC38280B567B4
:10121000373700409387C7CC1CC3371702405C5355
:10122000898BF5DF828083A6C18A85471821639068
:10123000F6021C31639CD7023C219A0793E707F81A
:10124000B7E600E093F7F70FBA962380F64085469D
:10125000935757003397E600544189CE938707048C
:101260008A07B7E600E0B69798C38280EDF33C2189
:101270009A07F9B793870706E5B7371702401C436B
:101280000E0593F777F05D8D08C38280EFE25FE192
:10129000371702405C4391462A84B18B6385D7009F
:1012A000A1466380D708B7376E01938707601CC0DB
:1012B000B7160240DC42918313F7F700B70700200E
:1012C00093878702BA978C23DC42184093F5F50F79
:1012D00093F707083355B70081E73A85EFE01FDE43
:1012E00048C008C448C4B7170240DC438D46AD83EC
:1012F000FD8B13D737008A07F18BD98F13F637018F
:1013000013F7370063F4C600138747FFB7070020C1
:1013100093874701BA978C23EFE05FDA08C86FE044
:10132000DFD85C43B777DC02938707C049B799C51C
:10133000371702401C4F5D8D08CF8280B7170240DF
:10134000984F1345F5FF798D88CF8280EFE25FD506
:101350001629F577FD17F58FF621DA252111D58F9E
:101360001EA95625FD779387379FF58FD6212A84AE
:101370002EC0D58F9625D58FB625D58F5EA55E2933
:10138000C207C18393F7F7CF5D8F5AA94800FD3D8F
:10139000B74701409387078082456312F406C2472E
:1013A0005A24139517003E9542070E0541873E9536
:1013B0008C41635807048605EFE05FD09305400633
:1013C0002AC0EFE0BFCF8247931445009305400643
:1013D0003E85EFE07FD15E24C207C18763D5070257
:1013E0000E059305400613052503EFE03FCD1D894B
:1013F000C98CC204C18006A461016FE01FCBB24753
:1014000045B78A0555BF1205930540061305250308
:10141000EFE0DFCA3D89E9BF91C55E250967D98F35
:101420005EA582805A25F977FD17F98FD5BF411146
:1014300006C62EC00DCD1841AA8705C358417D555B
:1014400011CB8546631BD70098472300070023A2D2
:1014500007000545B240410182809847824614A3A7
:101460009847050798C7D8437D17D8C3DDB7054609
:101470008A85EFF00F91F1BF011122CC2EC206CE6A
:1014800026CA2A84814793050002634506029245D5
:10149000BE95838505008DE563D8C70263D4E70256
:1014A000198E1305000293F526002AC089C501E7AD
:1014B000930500032EC0858A814495EAB2840DA06D
:1014C0008507F1B71D8EF1BF0146E1BF8245228538
:1014D0003AC832C63EC4A13FA24732464247FD1435
:1014E000E34690FEB284635306008144058E63C7D1
:1014F000E702A68792463387974036978305070011
:1015000095EDB28463449004635306000146F240B3
:101510006244D2443305F600056182801D8FBA878C
:1015200093050003228532C83EC63AC40937B24744
:1015300022474246FD17EDF7BA9465BF228532C6B1
:101540003EC4F535A247324685076DB782452285F0
:1015500032C43EC2E93DFD142246924765B7397157
:1015600006DE22DC26DA3EC232833A8689ED9246D6
:101570009307000301476C08FC86FD3DF25062545E
:10158000D25421618280AA843684AE8791CA2947C9
:1015900001446317E30063D50500B307B040054479
:1015A0008646A309010213073103938666FC36C4FD
:1015B0009A853E8532CA3AC81AC63EC0EFE0DFB20D
:1015C000A546824732434247524663D4A600A2460C
:1015D0003695130505039306F7FFA30FA7FE9A851B
:1015E0003E8532CC3ACA1AC83EC636C0EFE01FADBF
:1015F000B24742435247624663F9670401CC29CAA5
:101600009247898BB1C79305D002268532C4053530
:1016100022467D169247918B95C306479307100685
:1016200032C4930500032685631EF702093593052E
:1016300080072685ED3B2246090479161647924617
:1016400082452685153D229515BFAA8702478DB78D
:1016500082469307D0020144A38FF6FE9307E7FF6B
:101660003EC04DBFE93393058005E1B70145828057
:1016700001458280130181FD22D026CE06D22AC4E4
:10168000AE82328402C681448385020089EDA2477E
:1016900081C781453E85613B925002542685F244C4
:1016A000130181028280930750026388F50022456E
:1016B00016C88504AD3BC24239A883871200138740
:1016C0001200639CB7002245930550023AC8853347
:1016D00042478504BA82850245BFD5DB9306B00236
:1016E0006389D70463C8F600930630026386D70483
:1016F000814705A09306D002638AD70093060003B2
:10170000E398D7FE13872200894721A01387220080
:101710008547830607001306B0026383C60463414E
:10172000D60213063002638BC602BA820145A54673
:1017300081A0138722006DBF138722009147D1BF7C
:101740001306D0026389C60013060003E39FC6FC9C
:1017500093E7270031A005078547C1BF93E74700FE
:101760000507E1B713162500329506053A9585025F
:1017700003860200130706FD9375F70FE3F4B6FE28
:101780001307E0029946631EE60085028146A545DF
:1017900003860200130606FD1377F60F63F5E502D4
:1017A00036C6038702001306A006630DC70A63430B
:1017B000E6021306C0046307C70A13068006630C1B
:1017C000C70881452DA813972600BA968606B296BB
:1017D00085027DBF130640076306C7081306A007EE
:1017E0006302C7081306C0068145631AC700038653
:1017F00012008D456314E60085029145850203863B
:101800000200930300061307100663C4C300130706
:1018100010049303700663C4C30693035006635316
:1018200076189303700463C1C30493055004635B8B
:10183000B61613073004E310E6EA18409303440099
:1018400016CA230CE1001EC8A30C01000147BE8686
:101850002A862C0849A8038612008145E311E6FA7E
:10186000890271BF8502B1BF93063006E307D6FC3B
:1018700063CEC606930680056303D602A9BD930610
:1018800030076304D60463CBC6029306F0066302F6
:10189000D60E9306000793E74700E31ED6E2914673
:1018A000639FD50A930384000C40504016CA3AC285
:1018B0003EC01EC8AA870147C146B9A0930650077B
:1018C0006308D6069306800745BF1840B726000078
:1018D000930344009385C6B011C3BA85324716CA34
:1018E0001EC8BE862A862245413E0DA091466394BD
:1018F000D502930384000C40504016CA3AC23EC041
:101900001EC8AA870547A94622458D33C243AA941B
:101910001E84D242C9B3B2460C4016C836C23AC081
:1019200011042A878546294622451539AA9461B3B0
:101930009146639DD500930384000C40504016CA25
:101940003AC23EC01EC8AA87014775BFB2460C40C6
:1019500016C836C23AC011042A878146E9B7B24692
:1019600016C80C40414636C23AC011042A87814647
:1019700065BF9146639ED500930384000C405040A0
:1019800016CA3AC23EC01EC8AA870147A146ADBFCB
:10199000B2460C4016C836C23AC011042A878146A6
:1019A000214659B70C401306840040403AC22A87AA
:1019B000224532C83EC02286B687A94616CA4D398E
:1019C000AA944244B9B71301C1FD2EC832CAAA85F0
:1019D0001008014506C636CC3ACE3ED032C0593941
:1019E000B240130141028280411122C426C206C6C0
:1019F0001C21AA840144DC8183073100050499EF8E
:101A0000A9479305310005460145DC81EFE07FB72A
:101A10002285B240224492444101828005469305CA
:101A200031000145EFE0FFB5B38784009C23DC81E2
:101A3000E1B7000053797374656D436C6B3A2564AC
:101A40000D0A00004368697049443A253038780D22
:101A50000A000000557365723A253038780A0D0087
:101A6000426F6F7420636F756E74206973202564F4
:101A70000D0A00004045453A253038780D0A00002F
:101A800025303278200000000D0000004050454510
:101A90003A253038780D0A0045726173650A0D00E9
:101AA000636865636B20464C4153485F4144525F15
:101AB00052414E47455F4552524F5220464C41538A
:101AC000485F414C49474E5F4552524F52206F721A
:101AD00020464C4153485F4F505F52414E47455F4F
:101AE0004552524F520D000057726974650A0D003D
:101AF000253464202534642000000000253464204F
:101B0000253464202025640D0A000000286E756CC1
:041B10006C2900003C
:101B14000102030405060708010203040506070879
:101B2400006CDC020204060804080C1008101820DB
:101B3400102030402040608001020304050607089D
:081B4400010203040506070875
:081B4C00000000000000000091
:103FC000000102030405060708090A0B0C0D0D0F7A
:103FD00000000000000000000000000000000000E1
:103FE00000000000000000000000000000000000D1
:103FF00000000000000000000000000000000000C1
:00000001FF
