:100000006F00901E0000000032010000340100006B
:1000100000000000000000000000000000000000E0
:1000200000000000000000000000000000000000D0
:100030003E06000000000000E6090000000000008D
:10004000E6090000E6090000E6090000E6090000F4
:10005000E6090000E60900003C040000E609000093
:10006000E6090000E6090000E6090000E6090000D4
:10007000E6090000E6090000E6090000E6090000C4
:1000800004030000E6090000E6090000E60900009C
:10009000E6090000E6090000E60900000000000093
:1000A000511126C022C206C4828282441244A24058
:1000B00031018280634E050263C305042E86AA8542
:1000C0007D5515C285466378B6006356C0000606A6
:1000D0008606E36CB6FE014563E4C500918D558D3F
:1000E00085820582F5FA82808682C93F2E858282CA
:1000F0003305A04063D70500B305B040C1B7B305D1
:10010000B0408682653F3305A0408282868263C705
:100110000500634905005D372E858282B305B04036
:10012000E35B05FE3305A040513F3305B0408282BA
:10013000000001A001A0EFF2BFF623860180A38E8C
:1001400001822147238F0182238EE182A3840180D3
:1001500011651301C1FD2388018285451305050240
:100160002384018002C402C602C802CA02CC02CEA5
:1001700002D002C002C2EF00303B371401408D476D
:10018000930400023EC62C00E1471305044064843A
:100190003EC8EF00101C930700047C842C0091479C
:1001A000130504403EC8EF00D01AF1673744014000
:1001B000938707204C083ECA13050480B7070C003C
:1001C0003ECE02CC23100102EF00F0378357C480EB
:1001D0000A851304048093E707025EA485475C81C7
:1001E00085473EC26480EF00B02385452285EF003D
:1001F00050421301410255BD03C581801375F50FAF
:100200003335A0008280938781809C2393868180F0
:1002100093F7F70FEDDB93870183982313162700DD
:10022000138701813297184323A6E1809823137620
:10023000F70F130716001377F70F98A3370700205F
:10024000130787033297082398231D461375F50F6C
:100250006374E60023800700374701408357C78057
:10026000C207C18393F7F7FDC207C1832316F78046
:100270009C22FD1793F7F70F9CA28357C78093E743
:1002800007022316F78082809387C1839C2393867D
:10029000C18393F7F70FEDDB374701401307078062
:1002A0005E2793F7070889EF420541814AA3B747C4
:1002B000014003D7C780136707082396E780828031
:1002C0005E27C207C18393F7F7F7C207C1835EA712
:1002D0009387D18398231376F70F130716001377AC
:1002E000F70F98A313874183329708A398231D46DD
:1002F0006374E600238007009C22FD1793F7F70F35
:100300009CA275B7B74701401387078083D7078042
:1003100093F70702A9C393879180522398231376FA
:10032000F60F9376F70F138716001377F70F98A33E
:100330003707002013078703369710A398239D469D
:1003400063F4E60023800700138781801C23850760
:1003500093F7F70F1CA3B74701409385078083D716
:10036000078093F70708B1C39387C1839C231D457A
:100370001387C183636DF5029387E183942313F69A
:10038000F60F9306160093F6F60F94A39386418317
:10039000B2969422D6A194236374D50023800700DB
:1003A0001C23850793F7F70F1CA373002030DE256D
:1003B000C207C18393F7F7F7C207C183DEA5F5B77C
:1003C000EFF21FCE511185451305000202C002C293
:1003D00002C4EF00701585454145EF00F014371752
:1003E00001400D44C547C1448A85130507407C8000
:1003F00026C422C2EF00E0753717014093070008BA
:100400007C808A8593078004130507403EC4EF0073
:1004100040740947930780048A8537150140788026
:100420003EC4EF00007391478A85371501407C80F8
:1004300026C422C2EF00E071310185B9711122C0DA
:10044000370402401C40898B8DC3938741859823D4
:1004500091453715014005071377F70F98A39023AF
:10046000058AEF00607789475CC002441101730080
:100470002030B7170240D843C1769386F67F758F38
:10048000D8C3984F45767D161367072398CF371743
:10049000014083260740F18E2320D7408326074062
:1004A0007D761306F60FF18E2320D74014433706CE
:1004B000F1FF7D16F18E14C3D847B72601401367AC
:1004C0000720D8C7D8471377F7DFD8C7B727014029
:1004D0003707300023A6E7423717040023A8074256
:1004E0001307478623AAE74237870007130707FC4D
:1004F00023A8E74003A787401367170023A4E7401A
:1005000003A787401367870023A4E74003A786401B
:10051000218B6DFF03A786401367470023A4E640A5
:10052000B726014003A7864093870640118B7DFBC9
:1005300037160240584A9386C644B70540001367F1
:10054000170058CA3707024014CB9386C18454CB96
:10055000914654C78D669386265A14C7B7E600E0C5
:1005600023A0B610144737060E001306261093E694
:10057000160014C7D44393E60610D4C39447D18E13
:1005800094C798474D8F98C78280EFF27FB12A8435
:1005900015657111130555552EC0A1251375F40F5E
:1005A000A92582452E85B125892DB92D1101F5BCCE
:1005B000EFF21FAF894537150140112D9386018455
:1005C00098221335150093870184799B498F98A24F
:1005D000984289460D8B6309D70263EFE602854690
:1005E0006311D70298230D8B1367470098A3014529
:1005F0009843058B931617009823759B558F98A3E6
:100600006DB498230D8BDDB788439823098113754A
:10061000F5030D8B98A3E9BF98439306F0030145BA
:1006200009831377F703E305D7FC984394230983E1
:1006300005071377F7030A078D8A558FE1BF61110C
:1006400022C226C0B537938741849843050798C3D3
:100650000DCD91471384C18563E5A7001C40850734
:100660001CC01040B71401408545058A138504401D
:10067000A5231040894513850440098AB12B1040F9
:10068000C14513850440118A812B938741859823A6
:100690001377F70FA38AE1842380070012440547EC
:1006A0002384E184B7F700E023A2070082442101FC
:1006B00073002030EFF2DF9E7111AE840144635F5E
:1006C000C402B7470140138707803A8593050004A9
:1006D00032C0EF00E075B74701401387078002463C
:1006E0006DD53387840083050700138507800504D3
:1006F000C205C181EF0040730246D1B732851101B6
:100700006DB2EFF2FF99952C09651305F50D0929D6
:100710009387C185DA2395679387A75A1384C18588
:100720006304F7002320040095679387A75A5EA00F
:100730001934B706002083A50601371500001305FC
:10074000453FEF0010492D26AA85371500001305F7
:100750004540EF001048B707002083A507803715F4
:1007600000009384078013054541EF009046C620A2
:100770008145850493F4F40F2685A52E37150000D6
:10078000A68513050542EF00D0441D390567B7E77C
:1007900000E0B7F400E023A0E710DC40B70600203B
:1007A000A945F99BDCC003A50601EFF03F917D153B
:1007B00088C8BD47056723A404009CC0930507FAB9
:1007C0000D45E1337D311040B71401408545058A60
:1007D0001385044011211040894513850440098A7E
:1007E000E52E1040C14513850440118AF526138477
:1007F000C184193419C1013C413C371501409305AE
:10080000000813050540E12685476313F500F5262A
:10081000138781841C2393F7F70FE1DF2300070080
:100820000E2032203715000013054543EF00703AC3
:100830004E20722083C651853715000013050544EC
:10084000EF0030397DB7EFF2BF85371402401C400E
:100850003707FFF8611193E717001CC05C40414562
:10086000F98F5CC01C403707F7FE7D17F98F1CC05D
:100870001C403707FCFF7D17F98F1CC05C40417797
:100880007D17F98F5CC0B7079F001CC4E5261C4C80
:100890003706020093E707021CCCB717014003A7F5
:1008A0000740938607401377F7F023A0E74003A79C
:1008B00007401367070823A0E74089479CCA02C086
:1008C00002C21C4C37070140A16693E717001CCCFD
:1008D0005C43D58F5CC31C404167B7160240D98F7B
:1008E0001CC009679C42F18F3EC2824785073EC00B
:1008F000924781E78247E397E7FEB71702409C43A0
:100900001397E7006359070685473EC2124785479C
:100910006310F706B72702409843C176FD16719B16
:1009200098C398431367170098C3B7170240D8437A
:10093000D8C3D843758FD8C3D843C166558FD8C3A1
:100940009843B7060001558F98C3984393166700E4
:10095000E3DD06FED843B7160240719BD8C3D843E7
:1009600013672700D8C32147DC42B18BE39EE7FE23
:1009700021016FF08FF302C251BFEFF26FF2371710
:1009800002405C43370400209146B18B13040401FC
:100990006385D700A1466382D704B7376E0193877A
:1009A00007601CC0B7160240DC420840918313F771
:1009B000F700B707002093870700BA978C23DC4223
:1009C00093F5F50F93F707083357B50081E7EFF07C
:1009D000EFEE2A8718C06FF04FED5C43B777DC026B
:1009E000938707C07DBF01A097010020938101E597
:1009F000138181FC17150000130545A697F5FF1F0D
:100A00009385456017F6FF1F1306466363FAC5001A
:100A10008322050023A0550011059105E3EAC5FED8
:100A200017F5FF1F130585619385C1856377B500B1
:100A3000232005001105E36DB5FEB7220000938267
:100A40000288739002308D427390428097F2FFFFCC
:100A50009382425B93E2320073905230EFF0BFDE3C
:100A600097020000938222CA7390123473002030E0
:100A7000B7F7FF1F03A5477C8280B7066745B727F6
:100A80000240938636123797EFCDD4C31307B79A37
:100A9000D8C394C798C7984B1367070298CB984B55
:100AA0001367070498CBD847058B75FF984BB7069B
:100AB00000201377F7FD98CB984B1367070198CB6D
:100AC000938706801D8D372702409386C6803306A4
:100AD000F500122292A35047058A75FE8907E39814
:100AE000D7FE1C4BBD9B1CCB1C4B93E707081CCBB4
:100AF0008280EFF2EFDAB707002003A70780C20574
:100B000051112E953AC02AC203A787803AC483A701
:100B100047806304F5000A858D3731016FF0EFD807
:100B2000EFF20FD8B707002083A60780511136C017
:100B300083A6478036C203A7878068813AC483A70B
:100B4000078002476304F7000A85053F31016FF013
:100B5000CFD5944593F7060193F2F60081C7DC41A7
:100B6000B3E2F20083D3050093F7F30FA5C3032389
:100B70000500611122C226C081471304800293043C
:100B8000800405473316F70033F7C3006312E6020B
:100B9000939527003D473317B7001347F7FF33738B
:100BA0006700B395B20033E36500639D860050C9CA
:100BB00085072147E397E7FC124423206500824420
:100BC00021018280E39696FE10C9DDB78280084538
:100BD0006D8D3335A000828019C20CC982804CC94A
:100BE0008280B737004088C38280B7370040C8C3CF
:100BF0008280B737004088C78280AD6737370040B2
:100C00009387A7AA1CC38280B567373700409387B4
:100C1000C7CC1CC3371702405C53898BF5DF828039
:100C200083A68185854718216390F6021C31639C59
:100C3000D7023C219A0793E707F8B7E600E093F75D
:100C4000F70FBA962380F64085469357570033979F
:100C5000E600544189CE938707048A07B7E600E08F
:100C6000B69798C38280EDF33C219A07F9B7938732
:100C70000706E5B7371702401C430E0593F777F0D8
:100C80005D8D08C38280EFF2AFC1371702405C432D
:100C900091462A84B18B6385D700A1466380D7082B
:100CA000B7376E01938707601CC0B7160240DC425D
:100CB000918313F7F700B707002093878702BA974D
:100CC0008C23DC42184093F5F50F93F70708335552
:100CD000B70081E73A85EFF06FBE48C008C448C44A
:100CE000B7170240DC438D46AD83FD8B13D7370029
:100CF0008A07F18BD98F13F6370113F7370063F4A6
:100D0000C600138747FFB707002093874701BA97AC
:100D10008C23EFF0AFBA08C86FF02FB95C43B777F8
:100D2000DC02938707C049B799C5371702401C4FAB
:100D30005D8D08CF8280B7170240984F1345F5FFAD
:100D4000798D88CF8280EFF2AFB51629F577FD1740
:100D5000F58FF621DA252111D58F1EA95625FD77AD
:100D60009387379FF58FD6212A842EC0D58F96255D
:100D7000D58FB625D58F5EA55E29C207C18393F7AF
:100D8000F7CF5D8F5AA94800FD3DB74701409387D3
:100D9000078082456312F406C2475A241395170050
:100DA0003E9542070E0541873E958C4163580704E6
:100DB0008605EFF0AFB0930540062AC0EFF00FB004
:100DC000824793144500930540063E85EFF0CFB16E
:100DD0005E24C207C18763D507020E05930540064E
:100DE00013052503EFF08FAD1D89C98CC204C180A6
:100DF00006A461016FF06FABB24745B78A0555BFD6
:100E000012059305400613052503EFF02FAB3D892E
:100E1000E9BF91C55E250967D98F5EA582805A25F5
:100E2000F977FD17F98FD5BF93F5F51F4EA1828095
:100E30000A216D8D3335A0008280411106C62EC077
:100E40000DCD1841AA8705C358417D5511CB854664
:100E5000631BD70098472300070023A2070005451E
:100E6000B240410182809847824614A39847050703
:100E700098C7D8437D17D8C3DDB705468A85EFF0FC
:100E80007F83F1BF011122CC2EC206CE26CA2A844E
:100E9000814793050002634506029245BE9583850E
:100EA00005008DE563D8C70263D4E702198E1305E8
:100EB000000293F526002AC089C501E793050003C7
:100EC0002EC0858A814495EAB2840DA08507F1B7CA
:100ED0001D8EF1BF0146E1BF824522853AC832C668
:100EE0003EC4A13FA24732464247FD14E34690FE6E
:100EF000B284635306008144058E63C7E702A68768
:100F000092463387974036978305070095EDB28464
:100F100063449004635306000146F2406244D244A5
:100F20003305F600056182801D8FBA8793050003A3
:100F3000228532C83EC63AC40937B24722474246E4
:100F4000FD17EDF7BA9465BF228532C63EC4F5356C
:100F5000A247324685076DB78245228532C43EC21C
:100F6000E93DFD142246924765B7397106DE22DC61
:100F700026DA3EC232833A8689ED92469307000311
:100F800001476C08FC86FD3DF2506254D254216149
:100F90008280AA843684AE8791CA294701446317A8
:100FA000E30063D50500B307B04005448646A309B6
:100FB000010213073103938666FC36C49A853E8589
:100FC00032CA3AC81AC63EC0EFF00F92A546824711
:100FD00032434247524663D4A600A24636951305D3
:100FE00005039306F7FFA30FA7FE9A853E8532CC33
:100FF0003ACA1AC83EC636C0EFF04F8CB2474243D9
:101000005247624663F9670401CC29CA9247898B2B
:10101000B1C79305D002268532C4053522467D1618
:101020009247918B95C306479307100632C49305E8
:1010300000032685631EF702093593058007268580
:10104000ED3B2246090479161647924682452685CD
:10105000153D229515BFAA8702478DB78246930793
:10106000D0020144A38FF6FE9307E7FF3EC04DBFB9
:10107000E93393058005E1B701458280014582800F
:10108000130181FD22D026CE06D22AC4AE8232843C
:1010900002C681448385020089EDA24781C781454C
:1010A0003E85613B925002542685F2441301810231
:1010B0008280930750026388F500224516C8850494
:1010C000AD3BC24239A88387120013871200639C8C
:1010D000B7002245930550023AC88533424785043C
:1010E000BA82850245BFD5DB9306B0026389D70477
:1010F00063C8F600930630026386D704814705A0D3
:101100009306D002638AD70093060003E398D7FEC4
:1011100013872200894721A0138722008547830671
:1011200007001306B0026383C6046341D6021306A8
:101130003002638BC602BA820145A54681A013879F
:1011400022006DBF138722009147D1BF1306D00242
:101150006389C60013060003E39FC6FC93E72700DC
:1011600031A005078547C1BF93E747000507E1B7F1
:1011700013162500329506053A958502038602006E
:10118000130706FD9375F70FE3F4B6FE1307E002AD
:101190009946631EE60085028146A5450386020046
:1011A000130606FD1377F60F63F5E50236C60387CF
:1011B00002001306A006630DC70A6343E602130686
:1011C000C0046307C70A13068006630CC70881457D
:1011D0002DA813972600BA968606B29685027DBF83
:1011E000130640076306C7081306A0076302C70873
:1011F0001306C0068145631AC700038612008D4599
:101200006314E6008502914585020386020093037C
:1012100000061307100663C4C300130710049303EA
:10122000700663C4C3069303500663537618930392
:10123000700463C1C30493055004635BB6161307BF
:101240003004E310E6EA18409303440016CA230C66
:10125000E1001EC8A30C01000147BE862A862C08A7
:1012600049A8038612008145E311E6FA890271BF9D
:101270008502B1BF93063006E307D6FC63CEC606EF
:10128000930680056303D602A9BD93063007630465
:10129000D60463CBC6029306F0066302D60E93060D
:1012A000000793E74700E31ED6E29146639FD50A05
:1012B000930384000C40504016CA3AC23EC01EC878
:1012C000AA870147C146B9A0930650076308D6060E
:1012D0009306800745BF1840B716000093034400EB
:1012E0009385064511C3BA85324716CA1EC8BE8605
:1012F0002A862245413E0DA091466394D502930370
:1013000084000C40504016CA3AC23EC01EC8AA878C
:101310000547A94622458D33C243AA941E84D24272
:10132000C9B3B2460C4016C836C23AC011042A8767
:101330008546294622451539AA9461B39146639D95
:10134000D500930384000C40504016CA3AC23EC0F8
:101350001EC8AA87014775BFB2460C4016C836C2E0
:101360003AC011042A878146E9B7B24616C80C4034
:10137000414636C23AC011042A87814665BF91466C
:10138000639ED500930384000C40504016CA3AC2B5
:101390003EC01EC8AA870147A146ADBFB2460C4059
:1013A00016C836C23AC011042A878146214659B769
:1013B0000C401306840040403AC22A87224532C8B6
:1013C0003EC02286B687A94616CA4D39AA94424421
:1013D000B9B71301C1FD2EC832CAAA85100801454C
:1013E00006C636CC3ACE3ED032C05939B24013018F
:1013F0004102828053797374656D436C6B3A256446
:101400000D0A00004368697049443A253038780D68
:101410000A000000557365723A253038780A0D00CD
:10142000426F6F7420636F756E742069732025643A
:101430000D0A0000253464202534642000000000DB
:1014400025346420253464202025640D0A00000022
:08145000286E756C6C29000088
:10145800010203040506070801020304050607083C
:10146800006CDC020204060804080C10081018209E
:101478001020304020406080010203040506070860
:08148800010203040506070838
:08149000000000000000000054
:00000001FF
